{
  "_format": "hh-sol-artifact-1",
  "contractName": "Domains",
  "sourceName": "contracts/Greeter.sol",
  "abi": [
    {
      "inputs": [
        {
          "internalType": "string",
          "name": "_tld",
          "type": "string"
        }
      ],
      "stateMutability": "payable",
      "type": "constructor"
    },
    {
      "inputs": [],
      "name": "AlreadyRegistered",
      "type": "error"
    },
    {
      "inputs": [
        {
          "internalType": "string",
          "name": "name",
          "type": "string"
        }
      ],
      "name": "InvalidName",
      "type": "error"
    },
    {
      "inputs": [],
      "name": "Unauthorized",
      "type": "error"
    },
    {
      "anonymous": false,
      "inputs": [
        {
          "indexed": true,
          "internalType": "address",
          "name": "owner",
          "type": "address"
        },
        {
          "indexed": true,
          "internalType": "address",
          "name": "approved",
          "type": "address"
        },
        {
          "indexed": true,
          "internalType": "uint256",
          "name": "tokenId",
          "type": "uint256"
        }
      ],
      "name": "Approval",
      "type": "event"
    },
    {
      "anonymous": false,
      "inputs": [
        {
          "indexed": true,
          "internalType": "address",
          "name": "owner",
          "type": "address"
        },
        {
          "indexed": true,
          "internalType": "address",
          "name": "operator",
          "type": "address"
        },
        {
          "indexed": false,
          "internalType": "bool",
          "name": "approved",
          "type": "bool"
        }
      ],
      "name": "ApprovalForAll",
      "type": "event"
    },
    {
      "anonymous": false,
      "inputs": [
        {
          "indexed": true,
          "internalType": "address",
          "name": "from",
          "type": "address"
        },
        {
          "indexed": true,
          "internalType": "address",
          "name": "to",
          "type": "address"
        },
        {
          "indexed": true,
          "internalType": "uint256",
          "name": "tokenId",
          "type": "uint256"
        }
      ],
      "name": "Transfer",
      "type": "event"
    },
    {
      "inputs": [
        {
          "internalType": "address",
          "name": "to",
          "type": "address"
        },
        {
          "internalType": "uint256",
          "name": "tokenId",
          "type": "uint256"
        }
      ],
      "name": "approve",
      "outputs": [],
      "stateMutability": "nonpayable",
      "type": "function"
    },
    {
      "inputs": [
        {
          "internalType": "address",
          "name": "owner",
          "type": "address"
        }
      ],
      "name": "balanceOf",
      "outputs": [
        {
          "internalType": "uint256",
          "name": "",
          "type": "uint256"
        }
      ],
      "stateMutability": "view",
      "type": "function"
    },
    {
      "inputs": [
        {
          "internalType": "string",
          "name": "name",
          "type": "string"
        }
      ],
      "name": "getAddress",
      "outputs": [
        {
          "internalType": "address",
          "name": "",
          "type": "address"
        }
      ],
      "stateMutability": "view",
      "type": "function"
    },
    {
      "inputs": [],
      "name": "getAllNames",
      "outputs": [
        {
          "internalType": "string[]",
          "name": "",
          "type": "string[]"
        }
      ],
      "stateMutability": "view",
      "type": "function"
    },
    {
      "inputs": [
        {
          "internalType": "uint256",
          "name": "tokenId",
          "type": "uint256"
        }
      ],
      "name": "getApproved",
      "outputs": [
        {
          "internalType": "address",
          "name": "",
          "type": "address"
        }
      ],
      "stateMutability": "view",
      "type": "function"
    },
    {
      "inputs": [
        {
          "internalType": "string",
          "name": "name",
          "type": "string"
        }
      ],
      "name": "getId",
      "outputs": [
        {
          "internalType": "uint256",
          "name": "",
          "type": "uint256"
        }
      ],
      "stateMutability": "view",
      "type": "function"
    },
    {
      "inputs": [
        {
          "internalType": "string",
          "name": "name",
          "type": "string"
        },
        {
          "internalType": "enum RecordType",
          "name": "recordType",
          "type": "uint8"
        }
      ],
      "name": "getRecord",
      "outputs": [
        {
          "internalType": "string",
          "name": "",
          "type": "string"
        }
      ],
      "stateMutability": "view",
      "type": "function"
    },
    {
      "inputs": [
        {
          "internalType": "string",
          "name": "name",
          "type": "string"
        }
      ],
      "name": "getRecords",
      "outputs": [
        {
          "internalType": "string[]",
          "name": "",
          "type": "string[]"
        },
        {
          "internalType": "address",
          "name": "",
          "type": "address"
        }
      ],
      "stateMutability": "view",
      "type": "function"
    },
    {
      "inputs": [
        {
          "internalType": "string",
          "name": "",
          "type": "string"
        }
      ],
      "name": "ids",
      "outputs": [
        {
          "internalType": "uint256",
          "name": "",
          "type": "uint256"
        }
      ],
      "stateMutability": "view",
      "type": "function"
    },
    {
      "inputs": [
        {
          "internalType": "address",
          "name": "owner",
          "type": "address"
        },
        {
          "internalType": "address",
          "name": "operator",
          "type": "address"
        }
      ],
      "name": "isApprovedForAll",
      "outputs": [
        {
          "internalType": "bool",
          "name": "",
          "type": "bool"
        }
      ],
      "stateMutability": "view",
      "type": "function"
    },
    {
      "inputs": [],
      "name": "isOwner",
      "outputs": [
        {
          "internalType": "bool",
          "name": "",
          "type": "bool"
        }
      ],
      "stateMutability": "view",
      "type": "function"
    },
    {
      "inputs": [
        {
          "internalType": "string",
          "name": "name",
          "type": "string"
        }
      ],
      "name": "isSet",
      "outputs": [
        {
          "internalType": "bool",
          "name": "",
          "type": "bool"
        }
      ],
      "stateMutability": "pure",
      "type": "function"
    },
    {
      "inputs": [],
      "name": "name",
      "outputs": [
        {
          "internalType": "string",
          "name": "",
          "type": "string"
        }
      ],
      "stateMutability": "view",
      "type": "function"
    },
    {
      "inputs": [
        {
          "internalType": "uint256",
          "name": "",
          "type": "uint256"
        }
      ],
      "name": "names",
      "outputs": [
        {
          "internalType": "string",
          "name": "",
          "type": "string"
        }
      ],
      "stateMutability": "view",
      "type": "function"
    },
    {
      "inputs": [],
      "name": "owner",
      "outputs": [
        {
          "internalType": "address payable",
          "name": "",
          "type": "address"
        }
      ],
      "stateMutability": "view",
      "type": "function"
    },
    {
      "inputs": [
        {
          "internalType": "uint256",
          "name": "tokenId",
          "type": "uint256"
        }
      ],
      "name": "ownerOf",
      "outputs": [
        {
          "internalType": "address",
          "name": "",
          "type": "address"
        }
      ],
      "stateMutability": "view",
      "type": "function"
    },
    {
      "inputs": [
        {
          "internalType": "string",
          "name": "name",
          "type": "string"
        }
      ],
      "name": "price",
      "outputs": [
        {
          "internalType": "uint256",
          "name": "",
          "type": "uint256"
        }
      ],
      "stateMutability": "pure",
      "type": "function"
    },
    {
      "inputs": [
        {
          "internalType": "string",
          "name": "",
          "type": "string"
        }
      ],
      "name": "records",
      "outputs": [
        {
          "internalType": "string",
          "name": "avatar",
          "type": "string"
        },
        {
          "internalType": "string",
          "name": "twitterTag",
          "type": "string"
        },
        {
          "internalType": "string",
          "name": "website",
          "type": "string"
        },
        {
          "internalType": "string",
          "name": "email",
          "type": "string"
        },
        {
          "internalType": "string",
          "name": "description",
          "type": "string"
        }
      ],
      "stateMutability": "view",
      "type": "function"
    },
    {
      "inputs": [
        {
          "internalType": "string",
          "name": "name",
          "type": "string"
        }
      ],
      "name": "register",
      "outputs": [],
      "stateMutability": "payable",
      "type": "function"
    },
    {
      "inputs": [
        {
          "internalType": "address",
          "name": "from",
          "type": "address"
        },
        {
          "internalType": "address",
          "name": "to",
          "type": "address"
        },
        {
          "internalType": "uint256",
          "name": "tokenId",
          "type": "uint256"
        }
      ],
      "name": "safeTransferFrom",
      "outputs": [],
      "stateMutability": "nonpayable",
      "type": "function"
    },
    {
      "inputs": [
        {
          "internalType": "address",
          "name": "from",
          "type": "address"
        },
        {
          "internalType": "address",
          "name": "to",
          "type": "address"
        },
        {
          "internalType": "uint256",
          "name": "tokenId",
          "type": "uint256"
        },
        {
          "internalType": "bytes",
          "name": "_data",
          "type": "bytes"
        }
      ],
      "name": "safeTransferFrom",
      "outputs": [],
      "stateMutability": "nonpayable",
      "type": "function"
    },
    {
      "inputs": [
        {
          "internalType": "address",
          "name": "operator",
          "type": "address"
        },
        {
          "internalType": "bool",
          "name": "approved",
          "type": "bool"
        }
      ],
      "name": "setApprovalForAll",
      "outputs": [],
      "stateMutability": "nonpayable",
      "type": "function"
    },
    {
      "inputs": [
        {
          "internalType": "string",
          "name": "name",
          "type": "string"
        },
        {
          "internalType": "string",
          "name": "record",
          "type": "string"
        },
        {
          "internalType": "enum RecordType",
          "name": "recordType",
          "type": "uint8"
        }
      ],
      "name": "setRecord",
      "outputs": [],
      "stateMutability": "nonpayable",
      "type": "function"
    },
    {
      "inputs": [
        {
          "internalType": "string",
          "name": "name",
          "type": "string"
        },
        {
          "internalType": "string",
          "name": "_avatar",
          "type": "string"
        },
        {
          "internalType": "string",
          "name": "_twitterTag",
          "type": "string"
        },
        {
          "internalType": "string",
          "name": "_website",
          "type": "string"
        },
        {
          "internalType": "string",
          "name": "_email",
          "type": "string"
        },
        {
          "internalType": "string",
          "name": "_description",
          "type": "string"
        }
      ],
      "name": "setRecords",
      "outputs": [],
      "stateMutability": "nonpayable",
      "type": "function"
    },
    {
      "inputs": [
        {
          "internalType": "bytes4",
          "name": "interfaceId",
          "type": "bytes4"
        }
      ],
      "name": "supportsInterface",
      "outputs": [
        {
          "internalType": "bool",
          "name": "",
          "type": "bool"
        }
      ],
      "stateMutability": "view",
      "type": "function"
    },
    {
      "inputs": [],
      "name": "symbol",
      "outputs": [
        {
          "internalType": "string",
          "name": "",
          "type": "string"
        }
      ],
      "stateMutability": "view",
      "type": "function"
    },
    {
      "inputs": [],
      "name": "tld",
      "outputs": [
        {
          "internalType": "string",
          "name": "",
          "type": "string"
        }
      ],
      "stateMutability": "view",
      "type": "function"
    },
    {
      "inputs": [
        {
          "internalType": "uint256",
          "name": "tokenId",
          "type": "uint256"
        }
      ],
      "name": "tokenURI",
      "outputs": [
        {
          "internalType": "string",
          "name": "",
          "type": "string"
        }
      ],
      "stateMutability": "view",
      "type": "function"
    },
    {
      "inputs": [
        {
          "internalType": "address",
          "name": "from",
          "type": "address"
        },
        {
          "internalType": "address",
          "name": "to",
          "type": "address"
        },
        {
          "internalType": "uint256",
          "name": "tokenId",
          "type": "uint256"
        }
      ],
      "name": "transferFrom",
      "outputs": [],
      "stateMutability": "nonpayable",
      "type": "function"
    },
    {
      "inputs": [
        {
          "internalType": "string",
          "name": "name",
          "type": "string"
        }
      ],
      "name": "valid",
      "outputs": [
        {
          "internalType": "bool",
          "name": "",
          "type": "bool"
        }
      ],
      "stateMutability": "pure",
      "type": "function"
    },
    {
      "inputs": [],
      "name": "withdraw",
      "outputs": [],
      "stateMutability": "nonpayable",
      "type": "function"
    }
  ],
  "bytecode": "0x6080604052604051806108a0016040528061086c81526020016200657961086c9139600c908051906020019062000038929190620002f5565b506040518060400160405280600d81526020017f3c2f746578743e3c2f7376673e00000000000000000000000000000000000000815250600d908051906020019062000086929190620002f5565b5060405162006de538038062006de58339818101604052810190620000ac919062000542565b6040518060400160405280601181526020017f486f646c204e616d6520536572766963650000000000000000000000000000008152506040518060400160405280600381526020017f484e530000000000000000000000000000000000000000000000000000000000815250816000908051906020019062000130929190620002f5565b50806001908051906020019062000149929190620002f5565b50505033600a60006101000a81548173ffffffffffffffffffffffffffffffffffffffff021916908373ffffffffffffffffffffffffffffffffffffffff1602179055508060099080519060200190620001a5929190620002f5565b50620001f26040518060400160405280601881526020017f2573206e616d652073657276696365206465706c6f7965640000000000000000815250826200021060201b62002cae1760201c565b62000209600b620002b660201b62002d4a1760201c565b5062000690565b620002b2828260405160240162000229929190620005f0565b6040516020818303038152906040527f4b5c4277000000000000000000000000000000000000000000000000000000007bffffffffffffffffffffffffffffffffffffffffffffffffffffffff19166020820180517bffffffffffffffffffffffffffffffffffffffffffffffffffffffff8381831617835250505050620002cc60201b60201c565b5050565b6001816000016000828254019250508190555050565b60008151905060006a636f6e736f6c652e6c6f679050602083016000808483855afa5050505050565b82805462000303906200065a565b90600052602060002090601f01602090048101928262000327576000855562000373565b82601f106200034257805160ff191683800117855562000373565b8280016001018555821562000373579182015b828111156200037257825182559160200191906001019062000355565b5b50905062000382919062000386565b5090565b5b80821115620003a157600081600090555060010162000387565b5090565b6000604051905090565b600080fd5b600080fd5b600080fd5b600080fd5b6000601f19601f8301169050919050565b7f4e487b7100000000000000000000000000000000000000000000000000000000600052604160045260246000fd5b6200040e82620003c3565b810181811067ffffffffffffffff8211171562000430576200042f620003d4565b5b80604052505050565b600062000445620003a5565b905062000453828262000403565b919050565b600067ffffffffffffffff821115620004765762000475620003d4565b5b6200048182620003c3565b9050602081019050919050565b60005b83811015620004ae57808201518184015260208101905062000491565b83811115620004be576000848401525b50505050565b6000620004db620004d58462000458565b62000439565b905082815260208101848484011115620004fa57620004f9620003be565b5b620005078482856200048e565b509392505050565b600082601f830112620005275762000526620003b9565b5b815162000539848260208601620004c4565b91505092915050565b6000602082840312156200055b576200055a620003af565b5b600082015167ffffffffffffffff8111156200057c576200057b620003b4565b5b6200058a848285016200050f565b91505092915050565b600081519050919050565b600082825260208201905092915050565b6000620005bc8262000593565b620005c881856200059e565b9350620005da8185602086016200048e565b620005e581620003c3565b840191505092915050565b600060408201905081810360008301526200060c8185620005af565b90508181036020830152620006228184620005af565b90509392505050565b7f4e487b7100000000000000000000000000000000000000000000000000000000600052602260045260246000fd5b600060028204905060018216806200067357607f821691505b602082108114156200068a57620006896200062b565b5b50919050565b615ed980620006a06000396000f3fe6080604052600436106101d85760003560e01c80638f32d59b11610102578063c87b56dd11610095578063f2c298be11610064578063f2c298be14610759578063f5064fd014610775578063fb825e5f1461079e578063fe2c6198146107c9576101d8565b8063c87b56dd14610679578063e327ad61146106b6578063e985e9c5146106f3578063f0f1934614610730576101d8565b8063a22cb465116100d1578063a22cb465146105ad578063b88d4fde146105d6578063bee51f3b146105ff578063bf40fac11461063c576101d8565b80638f32d59b146104dd57806395d89b41146105085780639751e9f1146105335780639791c09714610570576101d8565b806342842e0e1161017a57806370a082311161014957806370a08231146103fa57806386e80b71146104375780638a08677d146104755780638da5cb5b146104b2576101d8565b806342842e0e146103165780634622ab031461033f578063541e771d1461037c5780636352211e146103bd576101d8565b8063095ea7b3116101b6578063095ea7b31461028257806323b872dd146102ab5780632d551432146102d45780633ccfd60b146102ff576101d8565b806301ffc9a7146101dd57806306fdde031461021a578063081812fc14610245575b600080fd5b3480156101e957600080fd5b5061020460048036038101906101ff9190614061565b610806565b60405161021191906140a9565b60405180910390f35b34801561022657600080fd5b5061022f6108e8565b60405161023c919061415d565b60405180910390f35b34801561025157600080fd5b5061026c600480360381019061026791906141b5565b61097a565b6040516102799190614223565b60405180910390f35b34801561028e57600080fd5b506102a960048036038101906102a4919061426a565b6109ff565b005b3480156102b757600080fd5b506102d260048036038101906102cd91906142aa565b610b17565b005b3480156102e057600080fd5b506102e9610b77565b6040516102f6919061415d565b60405180910390f35b34801561030b57600080fd5b50610314610c05565b005b34801561032257600080fd5b5061033d600480360381019061033891906142aa565b610ccb565b005b34801561034b57600080fd5b50610366600480360381019061036191906141b5565b610ceb565b604051610373919061415d565b60405180910390f35b34801561038857600080fd5b506103a3600480360381019061039e9190614432565b610d8b565b6040516103b495949392919061447b565b60405180910390f35b3480156103c957600080fd5b506103e460048036038101906103df91906141b5565b61107f565b6040516103f19190614223565b60405180910390f35b34801561040657600080fd5b50610421600480360381019061041c91906144f1565b611131565b60405161042e919061452d565b60405180910390f35b34801561044357600080fd5b5061045e600480360381019061045991906145a8565b6111e9565b60405161046c929190614701565b60405180910390f35b34801561048157600080fd5b5061049c60048036038101906104979190614432565b61164d565b6040516104a9919061452d565b60405180910390f35b3480156104be57600080fd5b506104c761167b565b6040516104d49190614752565b60405180910390f35b3480156104e957600080fd5b506104f26116a1565b6040516104ff91906140a9565b60405180910390f35b34801561051457600080fd5b5061051d6116f9565b60405161052a919061415d565b60405180910390f35b34801561053f57600080fd5b5061055a60048036038101906105559190614792565b61178b565b604051610567919061415d565b60405180910390f35b34801561057c57600080fd5b50610597600480360381019061059291906145a8565b611c2e565b6040516105a491906140a9565b60405180910390f35b3480156105b957600080fd5b506105d460048036038101906105cf919061481e565b611ce2565b005b3480156105e257600080fd5b506105fd60048036038101906105f891906148ff565b611cf8565b005b34801561060b57600080fd5b50610626600480360381019061062191906145a8565b611d5a565b604051610633919061452d565b60405180910390f35b34801561064857600080fd5b50610663600480360381019061065e91906145a8565b611db2565b6040516106709190614223565b60405180910390f35b34801561068557600080fd5b506106a0600480360381019061069b91906141b5565b611dce565b6040516106ad919061415d565b60405180910390f35b3480156106c257600080fd5b506106dd60048036038101906106d89190614432565b612146565b6040516106ea91906140a9565b60405180910390f35b3480156106ff57600080fd5b5061071a60048036038101906107159190614982565b61215b565b60405161072791906140a9565b60405180910390f35b34801561073c57600080fd5b50610757600480360381019061075291906149c2565b6121ef565b005b610773600480360381019061076e91906145a8565b6124c9565b005b34801561078157600080fd5b5061079c60048036038101906107979190614b0f565b612795565b005b3480156107aa57600080fd5b506107b3612a02565b6040516107c09190614ba4565b60405180910390f35b3480156107d557600080fd5b506107f060048036038101906107eb91906145a8565b612c08565b6040516107fd919061452d565b60405180910390f35b60007f80ac58cd000000000000000000000000000000000000000000000000000000007bffffffffffffffffffffffffffffffffffffffffffffffffffffffff1916827bffffffffffffffffffffffffffffffffffffffffffffffffffffffff191614806108d157507f5b5e139f000000000000000000000000000000000000000000000000000000007bffffffffffffffffffffffffffffffffffffffffffffffffffffffff1916827bffffffffffffffffffffffffffffffffffffffffffffffffffffffff1916145b806108e157506108e082612d60565b5b9050919050565b6060600080546108f790614bf5565b80601f016020809104026020016040519081016040528092919081815260200182805461092390614bf5565b80156109705780601f1061094557610100808354040283529160200191610970565b820191906000526020600020905b81548152906001019060200180831161095357829003601f168201915b5050505050905090565b600061098582612dca565b6109c4576040517f08c379a00000000000000000000000000000000000000000000000000000000081526004016109bb90614c99565b60405180910390fd5b6004600083815260200190815260200160002060009054906101000a900473ffffffffffffffffffffffffffffffffffffffff169050919050565b6000610a0a8261107f565b90508073ffffffffffffffffffffffffffffffffffffffff168373ffffffffffffffffffffffffffffffffffffffff161415610a7b576040517f08c379a0000000000000000000000000000000000000000000000000000000008152600401610a7290614d2b565b60405180910390fd5b8073ffffffffffffffffffffffffffffffffffffffff16610a9a612e36565b73ffffffffffffffffffffffffffffffffffffffff161480610ac95750610ac881610ac3612e36565b61215b565b5b610b08576040517f08c379a0000000000000000000000000000000000000000000000000000000008152600401610aff90614dbd565b60405180910390fd5b610b128383612e3e565b505050565b610b28610b22612e36565b82612ef7565b610b67576040517f08c379a0000000000000000000000000000000000000000000000000000000008152600401610b5e90614e4f565b60405180910390fd5b610b72838383612fd5565b505050565b60098054610b8490614bf5565b80601f0160208091040260200160405190810160405280929190818152602001828054610bb090614bf5565b8015610bfd5780601f10610bd257610100808354040283529160200191610bfd565b820191906000526020600020905b815481529060010190602001808311610be057829003601f168201915b505050505081565b610c0d6116a1565b610c1657600080fd5b600047905060003373ffffffffffffffffffffffffffffffffffffffff1682604051610c4190614ea0565b60006040518083038185875af1925050503d8060008114610c7e576040519150601f19603f3d011682016040523d82523d6000602084013e610c83565b606091505b5050905080610cc7576040517f08c379a0000000000000000000000000000000000000000000000000000000008152600401610cbe90614f01565b60405180910390fd5b5050565b610ce683838360405180602001604052806000815250611cf8565b505050565b60076020528060005260406000206000915090508054610d0a90614bf5565b80601f0160208091040260200160405190810160405280929190818152602001828054610d3690614bf5565b8015610d835780601f10610d5857610100808354040283529160200191610d83565b820191906000526020600020905b815481529060010190602001808311610d6657829003601f168201915b505050505081565b600681805160208101820180518482526020830160208501208183528095505050505050600091509050806000018054610dc490614bf5565b80601f0160208091040260200160405190810160405280929190818152602001828054610df090614bf5565b8015610e3d5780601f10610e1257610100808354040283529160200191610e3d565b820191906000526020600020905b815481529060010190602001808311610e2057829003601f168201915b505050505090806001018054610e5290614bf5565b80601f0160208091040260200160405190810160405280929190818152602001828054610e7e90614bf5565b8015610ecb5780601f10610ea057610100808354040283529160200191610ecb565b820191906000526020600020905b815481529060010190602001808311610eae57829003601f168201915b505050505090806002018054610ee090614bf5565b80601f0160208091040260200160405190810160405280929190818152602001828054610f0c90614bf5565b8015610f595780601f10610f2e57610100808354040283529160200191610f59565b820191906000526020600020905b815481529060010190602001808311610f3c57829003601f168201915b505050505090806003018054610f6e90614bf5565b80601f0160208091040260200160405190810160405280929190818152602001828054610f9a90614bf5565b8015610fe75780601f10610fbc57610100808354040283529160200191610fe7565b820191906000526020600020905b815481529060010190602001808311610fca57829003601f168201915b505050505090806004018054610ffc90614bf5565b80601f016020809104026020016040519081016040528092919081815260200182805461102890614bf5565b80156110755780601f1061104a57610100808354040283529160200191611075565b820191906000526020600020905b81548152906001019060200180831161105857829003601f168201915b5050505050905085565b6000806002600084815260200190815260200160002060009054906101000a900473ffffffffffffffffffffffffffffffffffffffff169050600073ffffffffffffffffffffffffffffffffffffffff168173ffffffffffffffffffffffffffffffffffffffff161415611128576040517f08c379a000000000000000000000000000000000000000000000000000000000815260040161111f90614f93565b60405180910390fd5b80915050919050565b60008073ffffffffffffffffffffffffffffffffffffffff168273ffffffffffffffffffffffffffffffffffffffff1614156111a2576040517f08c379a000000000000000000000000000000000000000000000000000000000815260040161119990615025565b60405180910390fd5b600360008373ffffffffffffffffffffffffffffffffffffffff1673ffffffffffffffffffffffffffffffffffffffff168152602001908152602001600020549050919050565b6060600080600567ffffffffffffffff81111561120957611208614307565b5b60405190808252806020026020018201604052801561123c57816020015b60608152602001906001900390816112275790505b50905060068585604051611251929190615075565b9081526020016040518091039020600001805461126d90614bf5565b80601f016020809104026020016040519081016040528092919081815260200182805461129990614bf5565b80156112e65780601f106112bb576101008083540402835291602001916112e6565b820191906000526020600020905b8154815290600101906020018083116112c957829003601f168201915b5050505050816000815181106112ff576112fe61508e565b5b60200260200101819052506006858560405161131c929190615075565b9081526020016040518091039020600101805461133890614bf5565b80601f016020809104026020016040519081016040528092919081815260200182805461136490614bf5565b80156113b15780601f10611386576101008083540402835291602001916113b1565b820191906000526020600020905b81548152906001019060200180831161139457829003601f168201915b5050505050816001815181106113ca576113c961508e565b5b6020026020010181905250600685856040516113e7929190615075565b9081526020016040518091039020600201805461140390614bf5565b80601f016020809104026020016040519081016040528092919081815260200182805461142f90614bf5565b801561147c5780601f106114515761010080835404028352916020019161147c565b820191906000526020600020905b81548152906001019060200180831161145f57829003601f168201915b5050505050816002815181106114955761149461508e565b5b6020026020010181905250600685856040516114b2929190615075565b908152602001604051809103902060030180546114ce90614bf5565b80601f01602080910402602001604051908101604052809291908181526020018280546114fa90614bf5565b80156115475780601f1061151c57610100808354040283529160200191611547565b820191906000526020600020905b81548152906001019060200180831161152a57829003601f168201915b5050505050816003815181106115605761155f61508e565b5b60200260200101819052506006858560405161157d929190615075565b9081526020016040518091039020600401805461159990614bf5565b80601f01602080910402602001604051908101604052809291908181526020018280546115c590614bf5565b80156116125780601f106115e757610100808354040283529160200191611612565b820191906000526020600020905b8154815290600101906020018083116115f557829003601f168201915b50505050508160048151811061162b5761162a61508e565b5b6020026020010181905250806116418686611db2565b92509250509250929050565b6008818051602081018201805184825260208301602085012081835280955050505050506000915090505481565b600a60009054906101000a900473ffffffffffffffffffffffffffffffffffffffff1681565b6000600a60009054906101000a900473ffffffffffffffffffffffffffffffffffffffff1673ffffffffffffffffffffffffffffffffffffffff163373ffffffffffffffffffffffffffffffffffffffff1614905090565b60606001805461170890614bf5565b80601f016020809104026020016040519081016040528092919081815260200182805461173490614bf5565b80156117815780601f1061175657610100808354040283529160200191611781565b820191906000526020600020905b81548152906001019060200180831161176457829003601f168201915b5050505050905090565b6060600060048111156117a1576117a06150bd565b5b8260048111156117b4576117b36150bd565b5b141561186d57600684846040516117cc929190615075565b908152602001604051809103902060000180546117e890614bf5565b80601f016020809104026020016040519081016040528092919081815260200182805461181490614bf5565b80156118615780601f1061183657610100808354040283529160200191611861565b820191906000526020600020905b81548152906001019060200180831161184457829003601f168201915b50505050509050611c27565b60016004811115611881576118806150bd565b5b826004811115611894576118936150bd565b5b141561194d57600684846040516118ac929190615075565b908152602001604051809103902060010180546118c890614bf5565b80601f01602080910402602001604051908101604052809291908181526020018280546118f490614bf5565b80156119415780601f1061191657610100808354040283529160200191611941565b820191906000526020600020905b81548152906001019060200180831161192457829003601f168201915b50505050509050611c27565b60026004811115611961576119606150bd565b5b826004811115611974576119736150bd565b5b1415611a2d576006848460405161198c929190615075565b908152602001604051809103902060020180546119a890614bf5565b80601f01602080910402602001604051908101604052809291908181526020018280546119d490614bf5565b8015611a215780601f106119f657610100808354040283529160200191611a21565b820191906000526020600020905b815481529060010190602001808311611a0457829003601f168201915b50505050509050611c27565b60036004811115611a4157611a406150bd565b5b826004811115611a5457611a536150bd565b5b1415611b0d5760068484604051611a6c929190615075565b90815260200160405180910390206003018054611a8890614bf5565b80601f0160208091040260200160405190810160405280929190818152602001828054611ab490614bf5565b8015611b015780601f10611ad657610100808354040283529160200191611b01565b820191906000526020600020905b815481529060010190602001808311611ae457829003601f168201915b50505050509050611c27565b600480811115611b2057611b1f6150bd565b5b826004811115611b3357611b326150bd565b5b1415611bec5760068484604051611b4b929190615075565b90815260200160405180910390206004018054611b6790614bf5565b80601f0160208091040260200160405190810160405280929190818152602001828054611b9390614bf5565b8015611be05780601f10611bb557610100808354040283529160200191611be0565b820191906000526020600020905b815481529060010190602001808311611bc357829003601f168201915b50505050509050611c27565b6040517f08c379a0000000000000000000000000000000000000000000000000000000008152600401611c1e90615138565b60405180910390fd5b9392505050565b60006003611c7f84848080601f016020809104026020016040519081016040528093929190818152602001838380828437600081840152601f19601f8201169050808301925050505050505061323c565b10158015611cda5750600c611cd784848080601f016020809104026020016040519081016040528093929190818152602001838380828437600081840152601f19601f8201169050808301925050505050505061323c565b11155b905092915050565b611cf4611ced612e36565b83836133f1565b5050565b611d09611d03612e36565b83612ef7565b611d48576040517f08c379a0000000000000000000000000000000000000000000000000000000008152600401611d3f90614e4f565b60405180910390fd5b611d548484848461355e565b50505050565b60008060088484604051611d6f929190615075565b9081526020016040518091039020541415611d8957600080fd5b60088383604051611d9b929190615075565b908152602001604051809103902054905092915050565b6000611dc6611dc18484611d5a565b61107f565b905092915050565b6060611e74600760008481526020019081526020016000208054611df190614bf5565b80601f0160208091040260200160405190810160405280929190818152602001828054611e1d90614bf5565b8015611e6a5780601f10611e3f57610100808354040283529160200191611e6a565b820191906000526020600020905b815481529060010190602001808311611e4d57829003601f168201915b5050505050612146565b611eb3576040517f08c379a0000000000000000000000000000000000000000000000000000000008152600401611eaa906151a4565b60405180910390fd5b6000600760008481526020019081526020016000206009604051602001611edb9291906152a4565b60405160208183030381529060405290506000611ef78261323c565b90506000611f04826135ba565b90506060611fcc600660076000898152602001908152602001600020604051611f2d91906152d3565b90815260200160405180910390206000018054611f4990614bf5565b80601f0160208091040260200160405190810160405280929190818152602001828054611f7590614bf5565b8015611fc25780601f10611f9757610100808354040283529160200191611fc2565b820191906000526020600020905b815481529060010190602001808311611fa557829003601f168201915b5050505050612146565b1561209457600660076000888152602001908152602001600020604051611ff391906152d3565b9081526020016040518091039020600001805461200f90614bf5565b80601f016020809104026020016040519081016040528092919081815260200182805461203b90614bf5565b80156120885780601f1061205d57610100808354040283529160200191612088565b820191906000526020600020905b81548152906001019060200180831161206b57829003601f168201915b505050505090506120ea565b6000600c85600d6040516020016120ad9392919061531b565b60405160208183030381529060405290506120c78161371b565b6040516020016120d79190615398565b6040516020818303038152906040529150505b600061211885838560405160200161210493929190615536565b60405160208183030381529060405261371b565b90508060405160200161212b91906155df565b60405160208183030381529060405295505050505050919050565b6000806121528361323c565b14159050919050565b6000600560008473ffffffffffffffffffffffffffffffffffffffff1673ffffffffffffffffffffffffffffffffffffffff16815260200190815260200160002060008373ffffffffffffffffffffffffffffffffffffffff1673ffffffffffffffffffffffffffffffffffffffff16815260200190815260200160002060009054906101000a900460ff16905092915050565b6121f98b8b611db2565b73ffffffffffffffffffffffffffffffffffffffff163373ffffffffffffffffffffffffffffffffffffffff161461225d576040517f82b4290000000000000000000000000000000000000000000000000000000000815260040160405180910390fd5b61226689612146565b156122a4578860068c8c60405161227e929190615075565b908152602001604051809103902060000190805190602001906122a2929190613ecc565b505b6122f188888080601f016020809104026020016040519081016040528093929190818152602001838380828437600081840152601f19601f82011690508083019250505050505050612146565b1561232a57878760068d8d60405161230a929190615075565b90815260200160405180910390206001019190612328929190613f52565b505b61237786868080601f016020809104026020016040519081016040528093929190818152602001838380828437600081840152601f19601f82011690508083019250505050505050612146565b156123b057858560068d8d604051612390929190615075565b908152602001604051809103902060020191906123ae929190613f52565b505b6123fd84848080601f016020809104026020016040519081016040528093929190818152602001838380828437600081840152601f19601f82011690508083019250505050505050612146565b1561243657838360068d8d604051612416929190615075565b90815260200160405180910390206003019190612434929190613f52565b505b61248382828080601f016020809104026020016040519081016040528093929190818152602001838380828437600081840152601f19601f82011690508083019250505050505050612146565b156124bc57818160068d8d60405161249c929190615075565b908152602001604051809103902060040191906124ba929190613f52565b505b5050505050505050505050565b6000600883836040516124dd929190615075565b90815260200160405180910390205414612523576040517f3a81d6fc00000000000000000000000000000000000000000000000000000000815260040160405180910390fd5b61252d8282611c2e565b6125705781816040517f7f19f48d00000000000000000000000000000000000000000000000000000000815260040161256792919061562e565b60405180910390fd5b60003073ffffffffffffffffffffffffffffffffffffffff1663fe2c619884846040518363ffffffff1660e01b81526004016125ad92919061562e565b602060405180830381865afa1580156125ca573d6000803e3d6000fd5b505050506040513d601f19601f820116820180604052508101906125ee9190615667565b905080341015612633576040517f08c379a000000000000000000000000000000000000000000000000000000000815260040161262a906156e0565b60405180910390fd5b600061263f600b6138b3565b9050612733604051806060016040528060318152602001615e336031913985858080601f016020809104026020016040519081016040528093929190818152602001838380828437600081840152601f19601f82011690508083019250505050505050600980546126af90614bf5565b80601f01602080910402602001604051908101604052809291908181526020018280546126db90614bf5565b80156127285780601f106126fd57610100808354040283529160200191612728565b820191906000526020600020905b81548152906001019060200180831161270b57829003601f168201915b5050505050846138c1565b61273d3382613963565b838360076000848152602001908152602001600020919061275f929190613f52565b508060088585604051612773929190615075565b90815260200160405180910390208190555061278f600b612d4a565b50505050565b61279f8585611db2565b73ffffffffffffffffffffffffffffffffffffffff163373ffffffffffffffffffffffffffffffffffffffff1614612803576040517f82b4290000000000000000000000000000000000000000000000000000000000815260040160405180910390fd5b60006004811115612817576128166150bd565b5b81600481111561282a576128296150bd565b5b141561286857828260068787604051612844929190615075565b90815260200160405180910390206000019190612862929190613f52565b506129fb565b6001600481111561287c5761287b6150bd565b5b81600481111561288f5761288e6150bd565b5b14156128cd578282600687876040516128a9929190615075565b908152602001604051809103902060010191906128c7929190613f52565b506129fa565b600260048111156128e1576128e06150bd565b5b8160048111156128f4576128f36150bd565b5b14156129325782826006878760405161290e929190615075565b9081526020016040518091039020600201919061292c929190613f52565b506129f9565b60036004811115612946576129456150bd565b5b816004811115612959576129586150bd565b5b141561299757828260068787604051612973929190615075565b90815260200160405180910390206003019190612991929190613f52565b506129f8565b6004808111156129aa576129a96150bd565b5b8160048111156129bd576129bc6150bd565b5b14156129f7578282600687876040516129d7929190615075565b908152602001604051809103902060040191906129f5929190613f52565b505b5b5b5b5b5050505050565b6060612a426040518060400160405280601f81526020017f47657474696e6720616c6c206e616d65732066726f6d20636f6e747261637400815250613981565b60006001612a50600b6138b3565b612a5a919061572f565b67ffffffffffffffff811115612a7357612a72614307565b5b604051908082528060200260200182016040528015612aa657816020015b6060815260200190600190039081612a915790505b5090506000600190505b612aba600b6138b3565b811015612c0057600760008281526020019081526020016000208054612adf90614bf5565b80601f0160208091040260200160405190810160405280929190818152602001828054612b0b90614bf5565b8015612b585780601f10612b2d57610100808354040283529160200191612b58565b820191906000526020600020905b815481529060010190602001808311612b3b57829003601f168201915b505050505082600183612b6b919061572f565b81518110612b7c57612b7b61508e565b5b6020026020010181905250612bed6040518060400160405280601781526020017f4e616d6520666f7220746f6b656e2025642069732025730000000000000000008152508284600185612bcf919061572f565b81518110612be057612bdf61508e565b5b6020026020010151613a1a565b8080612bf890615763565b915050612ab0565b508091505090565b600080612c5884848080601f016020809104026020016040519081016040528093929190818152602001838380828437600081840152601f19601f8201169050808301925050505050505061323c565b905060008111612c6757600080fd5b6003811415612c81576706f05b59d3b20000915050612ca8565b6004811415612c9b57670429d069189e0000915050612ca8565b67016345785d8a00009150505b92915050565b612d468282604051602401612cc49291906157ac565b6040516020818303038152906040527f4b5c4277000000000000000000000000000000000000000000000000000000007bffffffffffffffffffffffffffffffffffffffffffffffffffffffff19166020820180517bffffffffffffffffffffffffffffffffffffffffffffffffffffffff8381831617835250505050613ab9565b5050565b6001816000016000828254019250508190555050565b60007f01ffc9a7000000000000000000000000000000000000000000000000000000007bffffffffffffffffffffffffffffffffffffffffffffffffffffffff1916827bffffffffffffffffffffffffffffffffffffffffffffffffffffffff1916149050919050565b60008073ffffffffffffffffffffffffffffffffffffffff166002600084815260200190815260200160002060009054906101000a900473ffffffffffffffffffffffffffffffffffffffff1673ffffffffffffffffffffffffffffffffffffffff1614159050919050565b600033905090565b816004600083815260200190815260200160002060006101000a81548173ffffffffffffffffffffffffffffffffffffffff021916908373ffffffffffffffffffffffffffffffffffffffff160217905550808273ffffffffffffffffffffffffffffffffffffffff16612eb18361107f565b73ffffffffffffffffffffffffffffffffffffffff167f8c5be1e5ebec7d5bd14f71427d1e84f3dd0314c0f7b2291e5b200ac8c7c3b92560405160405180910390a45050565b6000612f0282612dca565b612f41576040517f08c379a0000000000000000000000000000000000000000000000000000000008152600401612f3890615855565b60405180910390fd5b6000612f4c8361107f565b90508073ffffffffffffffffffffffffffffffffffffffff168473ffffffffffffffffffffffffffffffffffffffff161480612fbb57508373ffffffffffffffffffffffffffffffffffffffff16612fa38461097a565b73ffffffffffffffffffffffffffffffffffffffff16145b80612fcc5750612fcb818561215b565b5b91505092915050565b8273ffffffffffffffffffffffffffffffffffffffff16612ff58261107f565b73ffffffffffffffffffffffffffffffffffffffff161461304b576040517f08c379a0000000000000000000000000000000000000000000000000000000008152600401613042906158e7565b60405180910390fd5b600073ffffffffffffffffffffffffffffffffffffffff168273ffffffffffffffffffffffffffffffffffffffff1614156130bb576040517f08c379a00000000000000000000000000000000000000000000000000000000081526004016130b290615979565b60405180910390fd5b6130c6838383613ae2565b6130d1600082612e3e565b6001600360008573ffffffffffffffffffffffffffffffffffffffff1673ffffffffffffffffffffffffffffffffffffffff1681526020019081526020016000206000828254613121919061572f565b925050819055506001600360008473ffffffffffffffffffffffffffffffffffffffff1673ffffffffffffffffffffffffffffffffffffffff16815260200190815260200160002060008282546131789190615999565b92505081905550816002600083815260200190815260200160002060006101000a81548173ffffffffffffffffffffffffffffffffffffffff021916908373ffffffffffffffffffffffffffffffffffffffff160217905550808273ffffffffffffffffffffffffffffffffffffffff168473ffffffffffffffffffffffffffffffffffffffff167fddf252ad1be2c89b69c2b068fc378daa952ba7f163c4a11628f55a4df523b3ef60405160405180910390a4613237838383613ae7565b505050565b60008060008084519050600092505b808210156133e65760008583815181106132685761326761508e565b5b602001015160f81c60f81b9050608060f81b817effffffffffffffffffffffffffffffffffffffffffffffffffffffffffffff191610156132b7576001836132b09190615999565b92506133d2565b60e060f81b817effffffffffffffffffffffffffffffffffffffffffffffffffffffffffffff191610156132f9576002836132f29190615999565b92506133d1565b60f060f81b817effffffffffffffffffffffffffffffffffffffffffffffffffffffffffffff1916101561333b576003836133349190615999565b92506133d0565b60f8801b817effffffffffffffffffffffffffffffffffffffffffffffffffffffffffffff1916101561337c576004836133759190615999565b92506133cf565b60fc60f81b817effffffffffffffffffffffffffffffffffffffffffffffffffffffffffffff191610156133be576005836133b79190615999565b92506133ce565b6006836133cb9190615999565b92505b5b5b5b5b5082806133de90615763565b93505061324b565b829350505050919050565b8173ffffffffffffffffffffffffffffffffffffffff168373ffffffffffffffffffffffffffffffffffffffff161415613460576040517f08c379a000000000000000000000000000000000000000000000000000000000815260040161345790615a3b565b60405180910390fd5b80600560008573ffffffffffffffffffffffffffffffffffffffff1673ffffffffffffffffffffffffffffffffffffffff16815260200190815260200160002060008473ffffffffffffffffffffffffffffffffffffffff1673ffffffffffffffffffffffffffffffffffffffff16815260200190815260200160002060006101000a81548160ff0219169083151502179055508173ffffffffffffffffffffffffffffffffffffffff168373ffffffffffffffffffffffffffffffffffffffff167f17307eab39ab6107e8899845ad3d59bd9653f200f220920489ca2b5937696c318360405161355191906140a9565b60405180910390a3505050565b613569848484612fd5565b61357584848484613aec565b6135b4576040517f08c379a00000000000000000000000000000000000000000000000000000000081526004016135ab90615acd565b60405180910390fd5b50505050565b60606000821415613602576040518060400160405280600181526020017f30000000000000000000000000000000000000000000000000000000000000008152509050613716565b600082905060005b6000821461363457808061361d90615763565b915050600a8261362d9190615b1c565b915061360a565b60008167ffffffffffffffff8111156136505761364f614307565b5b6040519080825280601f01601f1916602001820160405280156136825781602001600182028036833780820191505090505b5090505b6000851461370f5760018261369b919061572f565b9150600a856136aa9190615b4d565b60306136b69190615999565b60f81b8183815181106136cc576136cb61508e565b5b60200101907effffffffffffffffffffffffffffffffffffffffffffffffffffffffffffff1916908160001a905350600a856137089190615b1c565b9450613686565b8093505050505b919050565b6060600082519050600081141561374457604051806020016040528060008152509150506138ae565b600060036002836137559190615999565b61375f9190615b1c565b600461376b9190615b7e565b9050600060208261377c9190615999565b67ffffffffffffffff81111561379557613794614307565b5b6040519080825280601f01601f1916602001820160405280156137c75781602001600182028036833780820191505090505b5090506000604051806060016040528060408152602001615e64604091399050600181016020830160005b8681101561386b5760038101905062ffffff818a015116603f8160121c168401518060081b905060ff603f83600c1c1686015116810190508060081b905060ff603f8360061c1686015116810190508060081b905060ff603f831686015116810190508060e01b905080845260048401935050506137f2565b5060038606600181146138855760028114613895576138a0565b613d3d60f01b60028303526138a0565b603d60f81b60018303525b508484525050819450505050505b919050565b600081600001549050919050565b61395d848484846040516024016138db9493929190615bd8565b6040516020818303038152906040527f9fd009f5000000000000000000000000000000000000000000000000000000007bffffffffffffffffffffffffffffffffffffffffffffffffffffffff19166020820180517bffffffffffffffffffffffffffffffffffffffffffffffffffffffff8381831617835250505050613ab9565b50505050565b61397d828260405180602001604052806000815250613c74565b5050565b613a1781604051602401613995919061415d565b6040516020818303038152906040527f41304fac000000000000000000000000000000000000000000000000000000007bffffffffffffffffffffffffffffffffffffffffffffffffffffffff19166020820180517bffffffffffffffffffffffffffffffffffffffffffffffffffffffff8381831617835250505050613ab9565b50565b613ab4838383604051602401613a3293929190615c32565b6040516020818303038152906040527fa3f5c739000000000000000000000000000000000000000000000000000000007bffffffffffffffffffffffffffffffffffffffffffffffffffffffff19166020820180517bffffffffffffffffffffffffffffffffffffffffffffffffffffffff8381831617835250505050613ab9565b505050565b60008151905060006a636f6e736f6c652e6c6f679050602083016000808483855afa5050505050565b505050565b505050565b6000613b0d8473ffffffffffffffffffffffffffffffffffffffff16613ccf565b15613c67578373ffffffffffffffffffffffffffffffffffffffff1663150b7a02613b36612e36565b8786866040518563ffffffff1660e01b8152600401613b589493929190615ccc565b6020604051808303816000875af1925050508015613b9457506040513d601f19601f82011682018060405250810190613b919190615d2d565b60015b613c17573d8060008114613bc4576040519150601f19603f3d011682016040523d82523d6000602084013e613bc9565b606091505b50600081511415613c0f576040517f08c379a0000000000000000000000000000000000000000000000000000000008152600401613c0690615acd565b60405180910390fd5b805181602001fd5b63150b7a0260e01b7bffffffffffffffffffffffffffffffffffffffffffffffffffffffff1916817bffffffffffffffffffffffffffffffffffffffffffffffffffffffff191614915050613c6c565b600190505b949350505050565b613c7e8383613cf2565b613c8b6000848484613aec565b613cca576040517f08c379a0000000000000000000000000000000000000000000000000000000008152600401613cc190615acd565b60405180910390fd5b505050565b6000808273ffffffffffffffffffffffffffffffffffffffff163b119050919050565b600073ffffffffffffffffffffffffffffffffffffffff168273ffffffffffffffffffffffffffffffffffffffff161415613d62576040517f08c379a0000000000000000000000000000000000000000000000000000000008152600401613d5990615da6565b60405180910390fd5b613d6b81612dca565b15613dab576040517f08c379a0000000000000000000000000000000000000000000000000000000008152600401613da290615e12565b60405180910390fd5b613db760008383613ae2565b6001600360008473ffffffffffffffffffffffffffffffffffffffff1673ffffffffffffffffffffffffffffffffffffffff1681526020019081526020016000206000828254613e079190615999565b92505081905550816002600083815260200190815260200160002060006101000a81548173ffffffffffffffffffffffffffffffffffffffff021916908373ffffffffffffffffffffffffffffffffffffffff160217905550808273ffffffffffffffffffffffffffffffffffffffff16600073ffffffffffffffffffffffffffffffffffffffff167fddf252ad1be2c89b69c2b068fc378daa952ba7f163c4a11628f55a4df523b3ef60405160405180910390a4613ec860008383613ae7565b5050565b828054613ed890614bf5565b90600052602060002090601f016020900481019282613efa5760008555613f41565b82601f10613f1357805160ff1916838001178555613f41565b82800160010185558215613f41579182015b82811115613f40578251825591602001919060010190613f25565b5b509050613f4e9190613fd8565b5090565b828054613f5e90614bf5565b90600052602060002090601f016020900481019282613f805760008555613fc7565b82601f10613f9957803560ff1916838001178555613fc7565b82800160010185558215613fc7579182015b82811115613fc6578235825591602001919060010190613fab565b5b509050613fd49190613fd8565b5090565b5b80821115613ff1576000816000905550600101613fd9565b5090565b6000604051905090565b600080fd5b600080fd5b60007fffffffff0000000000000000000000000000000000000000000000000000000082169050919050565b61403e81614009565b811461404957600080fd5b50565b60008135905061405b81614035565b92915050565b60006020828403121561407757614076613fff565b5b60006140858482850161404c565b91505092915050565b60008115159050919050565b6140a38161408e565b82525050565b60006020820190506140be600083018461409a565b92915050565b600081519050919050565b600082825260208201905092915050565b60005b838110156140fe5780820151818401526020810190506140e3565b8381111561410d576000848401525b50505050565b6000601f19601f8301169050919050565b600061412f826140c4565b61413981856140cf565b93506141498185602086016140e0565b61415281614113565b840191505092915050565b600060208201905081810360008301526141778184614124565b905092915050565b6000819050919050565b6141928161417f565b811461419d57600080fd5b50565b6000813590506141af81614189565b92915050565b6000602082840312156141cb576141ca613fff565b5b60006141d9848285016141a0565b91505092915050565b600073ffffffffffffffffffffffffffffffffffffffff82169050919050565b600061420d826141e2565b9050919050565b61421d81614202565b82525050565b60006020820190506142386000830184614214565b92915050565b61424781614202565b811461425257600080fd5b50565b6000813590506142648161423e565b92915050565b6000806040838503121561428157614280613fff565b5b600061428f85828601614255565b92505060206142a0858286016141a0565b9150509250929050565b6000806000606084860312156142c3576142c2613fff565b5b60006142d186828701614255565b93505060206142e286828701614255565b92505060406142f3868287016141a0565b9150509250925092565b600080fd5b600080fd5b7f4e487b7100000000000000000000000000000000000000000000000000000000600052604160045260246000fd5b61433f82614113565b810181811067ffffffffffffffff8211171561435e5761435d614307565b5b80604052505050565b6000614371613ff5565b905061437d8282614336565b919050565b600067ffffffffffffffff82111561439d5761439c614307565b5b6143a682614113565b9050602081019050919050565b82818337600083830152505050565b60006143d56143d084614382565b614367565b9050828152602081018484840111156143f1576143f0614302565b5b6143fc8482856143b3565b509392505050565b600082601f830112614419576144186142fd565b5b81356144298482602086016143c2565b91505092915050565b60006020828403121561444857614447613fff565b5b600082013567ffffffffffffffff81111561446657614465614004565b5b61447284828501614404565b91505092915050565b600060a08201905081810360008301526144958188614124565b905081810360208301526144a98187614124565b905081810360408301526144bd8186614124565b905081810360608301526144d18185614124565b905081810360808301526144e58184614124565b90509695505050505050565b60006020828403121561450757614506613fff565b5b600061451584828501614255565b91505092915050565b6145278161417f565b82525050565b6000602082019050614542600083018461451e565b92915050565b600080fd5b600080fd5b60008083601f840112614568576145676142fd565b5b8235905067ffffffffffffffff81111561458557614584614548565b5b6020830191508360018202830111156145a1576145a061454d565b5b9250929050565b600080602083850312156145bf576145be613fff565b5b600083013567ffffffffffffffff8111156145dd576145dc614004565b5b6145e985828601614552565b92509250509250929050565b600081519050919050565b600082825260208201905092915050565b6000819050602082019050919050565b600082825260208201905092915050565b600061463d826140c4565b6146478185614621565b93506146578185602086016140e0565b61466081614113565b840191505092915050565b60006146778383614632565b905092915050565b6000602082019050919050565b6000614697826145f5565b6146a18185614600565b9350836020820285016146b385614611565b8060005b858110156146ef57848403895281516146d0858261466b565b94506146db8361467f565b925060208a019950506001810190506146b7565b50829750879550505050505092915050565b6000604082019050818103600083015261471b818561468c565b905061472a6020830184614214565b9392505050565b600061473c826141e2565b9050919050565b61474c81614731565b82525050565b60006020820190506147676000830184614743565b92915050565b6005811061477a57600080fd5b50565b60008135905061478c8161476d565b92915050565b6000806000604084860312156147ab576147aa613fff565b5b600084013567ffffffffffffffff8111156147c9576147c8614004565b5b6147d586828701614552565b935093505060206147e88682870161477d565b9150509250925092565b6147fb8161408e565b811461480657600080fd5b50565b600081359050614818816147f2565b92915050565b6000806040838503121561483557614834613fff565b5b600061484385828601614255565b925050602061485485828601614809565b9150509250929050565b600067ffffffffffffffff82111561487957614878614307565b5b61488282614113565b9050602081019050919050565b60006148a261489d8461485e565b614367565b9050828152602081018484840111156148be576148bd614302565b5b6148c98482856143b3565b509392505050565b600082601f8301126148e6576148e56142fd565b5b81356148f684826020860161488f565b91505092915050565b6000806000806080858703121561491957614918613fff565b5b600061492787828801614255565b945050602061493887828801614255565b9350506040614949878288016141a0565b925050606085013567ffffffffffffffff81111561496a57614969614004565b5b614976878288016148d1565b91505092959194509250565b6000806040838503121561499957614998613fff565b5b60006149a785828601614255565b92505060206149b885828601614255565b9150509250929050565b600080600080600080600080600080600060c08c8e0312156149e7576149e6613fff565b5b60008c013567ffffffffffffffff811115614a0557614a04614004565b5b614a118e828f01614552565b9b509b505060208c013567ffffffffffffffff811115614a3457614a33614004565b5b614a408e828f01614404565b99505060408c013567ffffffffffffffff811115614a6157614a60614004565b5b614a6d8e828f01614552565b985098505060608c013567ffffffffffffffff811115614a9057614a8f614004565b5b614a9c8e828f01614552565b965096505060808c013567ffffffffffffffff811115614abf57614abe614004565b5b614acb8e828f01614552565b945094505060a08c013567ffffffffffffffff811115614aee57614aed614004565b5b614afa8e828f01614552565b92509250509295989b509295989b9093969950565b600080600080600060608688031215614b2b57614b2a613fff565b5b600086013567ffffffffffffffff811115614b4957614b48614004565b5b614b5588828901614552565b9550955050602086013567ffffffffffffffff811115614b7857614b77614004565b5b614b8488828901614552565b93509350506040614b978882890161477d565b9150509295509295909350565b60006020820190508181036000830152614bbe818461468c565b905092915050565b7f4e487b7100000000000000000000000000000000000000000000000000000000600052602260045260246000fd5b60006002820490506001821680614c0d57607f821691505b60208210811415614c2157614c20614bc6565b5b50919050565b7f4552433732313a20617070726f76656420717565727920666f72206e6f6e657860008201527f697374656e7420746f6b656e0000000000000000000000000000000000000000602082015250565b6000614c83602c836140cf565b9150614c8e82614c27565b604082019050919050565b60006020820190508181036000830152614cb281614c76565b9050919050565b7f4552433732313a20617070726f76616c20746f2063757272656e74206f776e6560008201527f7200000000000000000000000000000000000000000000000000000000000000602082015250565b6000614d156021836140cf565b9150614d2082614cb9565b604082019050919050565b60006020820190508181036000830152614d4481614d08565b9050919050565b7f4552433732313a20617070726f76652063616c6c6572206973206e6f74206f7760008201527f6e6572206e6f7220617070726f76656420666f7220616c6c0000000000000000602082015250565b6000614da76038836140cf565b9150614db282614d4b565b604082019050919050565b60006020820190508181036000830152614dd681614d9a565b9050919050565b7f4552433732313a207472616e736665722063616c6c6572206973206e6f74206f60008201527f776e6572206e6f7220617070726f766564000000000000000000000000000000602082015250565b6000614e396031836140cf565b9150614e4482614ddd565b604082019050919050565b60006020820190508181036000830152614e6881614e2c565b9050919050565b600081905092915050565b50565b6000614e8a600083614e6f565b9150614e9582614e7a565b600082019050919050565b6000614eab82614e7d565b9150819050919050565b7f4661696c656420746f207769746864726177204d617469630000000000000000600082015250565b6000614eeb6018836140cf565b9150614ef682614eb5565b602082019050919050565b60006020820190508181036000830152614f1a81614ede565b9050919050565b7f4552433732313a206f776e657220717565727920666f72206e6f6e657869737460008201527f656e7420746f6b656e0000000000000000000000000000000000000000000000602082015250565b6000614f7d6029836140cf565b9150614f8882614f21565b604082019050919050565b60006020820190508181036000830152614fac81614f70565b9050919050565b7f4552433732313a2062616c616e636520717565727920666f7220746865207a6560008201527f726f206164647265737300000000000000000000000000000000000000000000602082015250565b600061500f602a836140cf565b915061501a82614fb3565b604082019050919050565b6000602082019050818103600083015261503e81615002565b9050919050565b600081905092915050565b600061505c8385615045565b93506150698385846143b3565b82840190509392505050565b6000615082828486615050565b91508190509392505050565b7f4e487b7100000000000000000000000000000000000000000000000000000000600052603260045260246000fd5b7f4e487b7100000000000000000000000000000000000000000000000000000000600052602160045260246000fd5b7f5265636f7264206e6f7420666f756e6400000000000000000000000000000000600082015250565b60006151226010836140cf565b915061512d826150ec565b602082019050919050565b6000602082019050818103600083015261515181615115565b9050919050565b7f4164647265737320756e6b6e6f776e0000000000000000000000000000000000600082015250565b600061518e600f836140cf565b915061519982615158565b602082019050919050565b600060208201905081810360008301526151bd81615181565b9050919050565b60008190508160005260206000209050919050565b600081546151e681614bf5565b6151f08186615045565b9450600182166000811461520b576001811461521c5761524f565b60ff1983168652818601935061524f565b615225856151c4565b60005b8381101561524757815481890152600182019150602081019050615228565b838801955050505b50505092915050565b7f2e00000000000000000000000000000000000000000000000000000000000000600082015250565b600061528e600183615045565b915061529982615258565b600182019050919050565b60006152b082856151d9565b91506152bb82615281565b91506152c782846151d9565b91508190509392505050565b60006152df82846151d9565b915081905092915050565b60006152f5826140c4565b6152ff8185615045565b935061530f8185602086016140e0565b80840191505092915050565b600061532782866151d9565b915061533382856152ea565b915061533f82846151d9565b9150819050949350505050565b7f646174613a696d6167652f7376672b786d6c3b6261736536342c000000000000600082015250565b6000615382601a83615045565b915061538d8261534c565b601a82019050919050565b60006153a382615375565b91506153af82846152ea565b915081905092915050565b7f7b226e616d65223a202200000000000000000000000000000000000000000000600082015250565b60006153f0600a83615045565b91506153fb826153ba565b600a82019050919050565b7f222c20226465736372697074696f6e223a20224120646f6d61696e206f6e207460008201527f686520484f444c206e616d652073657276696365222c2022696d616765223a2060208201527f2200000000000000000000000000000000000000000000000000000000000000604082015250565b6000615488604183615045565b915061549382615406565b604182019050919050565b7f222c226c656e677468223a220000000000000000000000000000000000000000600082015250565b60006154d4600c83615045565b91506154df8261549e565b600c82019050919050565b7f227d000000000000000000000000000000000000000000000000000000000000600082015250565b6000615520600283615045565b915061552b826154ea565b600282019050919050565b6000615541826153e3565b915061554d82866152ea565b91506155588261547b565b915061556482856152ea565b915061556f826154c7565b915061557b82846152ea565b915061558682615513565b9150819050949350505050565b7f646174613a6170706c69636174696f6e2f6a736f6e3b6261736536342c000000600082015250565b60006155c9601d83615045565b91506155d482615593565b601d82019050919050565b60006155ea826155bc565b91506155f682846152ea565b915081905092915050565b600061560d83856140cf565b935061561a8385846143b3565b61562383614113565b840190509392505050565b60006020820190508181036000830152615649818486615601565b90509392505050565b60008151905061566181614189565b92915050565b60006020828403121561567d5761567c613fff565b5b600061568b84828501615652565b91505092915050565b7f4e6f7420656e6f756768204d6174696320706169640000000000000000000000600082015250565b60006156ca6015836140cf565b91506156d582615694565b602082019050919050565b600060208201905081810360008301526156f9816156bd565b9050919050565b7f4e487b7100000000000000000000000000000000000000000000000000000000600052601160045260246000fd5b600061573a8261417f565b91506157458361417f565b92508282101561575857615757615700565b5b828203905092915050565b600061576e8261417f565b91507fffffffffffffffffffffffffffffffffffffffffffffffffffffffffffffffff8214156157a1576157a0615700565b5b600182019050919050565b600060408201905081810360008301526157c68185614124565b905081810360208301526157da8184614124565b90509392505050565b7f4552433732313a206f70657261746f7220717565727920666f72206e6f6e657860008201527f697374656e7420746f6b656e0000000000000000000000000000000000000000602082015250565b600061583f602c836140cf565b915061584a826157e3565b604082019050919050565b6000602082019050818103600083015261586e81615832565b9050919050565b7f4552433732313a207472616e736665722066726f6d20696e636f72726563742060008201527f6f776e6572000000000000000000000000000000000000000000000000000000602082015250565b60006158d16025836140cf565b91506158dc82615875565b604082019050919050565b60006020820190508181036000830152615900816158c4565b9050919050565b7f4552433732313a207472616e7366657220746f20746865207a65726f2061646460008201527f7265737300000000000000000000000000000000000000000000000000000000602082015250565b60006159636024836140cf565b915061596e82615907565b604082019050919050565b6000602082019050818103600083015261599281615956565b9050919050565b60006159a48261417f565b91506159af8361417f565b9250827fffffffffffffffffffffffffffffffffffffffffffffffffffffffffffffffff038211156159e4576159e3615700565b5b828201905092915050565b7f4552433732313a20617070726f766520746f2063616c6c657200000000000000600082015250565b6000615a256019836140cf565b9150615a30826159ef565b602082019050919050565b60006020820190508181036000830152615a5481615a18565b9050919050565b7f4552433732313a207472616e7366657220746f206e6f6e20455243373231526560008201527f63656976657220696d706c656d656e7465720000000000000000000000000000602082015250565b6000615ab76032836140cf565b9150615ac282615a5b565b604082019050919050565b60006020820190508181036000830152615ae681615aaa565b9050919050565b7f4e487b7100000000000000000000000000000000000000000000000000000000600052601260045260246000fd5b6000615b278261417f565b9150615b328361417f565b925082615b4257615b41615aed565b5b828204905092915050565b6000615b588261417f565b9150615b638361417f565b925082615b7357615b72615aed565b5b828206905092915050565b6000615b898261417f565b9150615b948361417f565b9250817fffffffffffffffffffffffffffffffffffffffffffffffffffffffffffffffff0483118215151615615bcd57615bcc615700565b5b828202905092915050565b60006080820190508181036000830152615bf28187614124565b90508181036020830152615c068186614124565b90508181036040830152615c1a8185614124565b9050615c29606083018461451e565b95945050505050565b60006060820190508181036000830152615c4c8186614124565b9050615c5b602083018561451e565b8181036040830152615c6d8184614124565b9050949350505050565b600081519050919050565b600082825260208201905092915050565b6000615c9e82615c77565b615ca88185615c82565b9350615cb88185602086016140e0565b615cc181614113565b840191505092915050565b6000608082019050615ce16000830187614214565b615cee6020830186614214565b615cfb604083018561451e565b8181036060830152615d0d8184615c93565b905095945050505050565b600081519050615d2781614035565b92915050565b600060208284031215615d4357615d42613fff565b5b6000615d5184828501615d18565b91505092915050565b7f4552433732313a206d696e7420746f20746865207a65726f2061646472657373600082015250565b6000615d906020836140cf565b9150615d9b82615d5a565b602082019050919050565b60006020820190508181036000830152615dbf81615d83565b9050919050565b7f4552433732313a20746f6b656e20616c7265616479206d696e74656400000000600082015250565b6000615dfc601c836140cf565b9150615e0782615dc6565b602082019050919050565b60006020820190508181036000830152615e2b81615def565b905091905056fe5265676973746572696e672025732e2573206f6e2074686520636f6e7472616374207769746820746f6b656e49442025644142434445464748494a4b4c4d4e4f505152535455565758595a6162636465666768696a6b6c6d6e6f707172737475767778797a303132333435363738392b2fa26469706673582212203e41abc4aeda222981fb37b67bf1e32a4c9eb68e38f4df3c6823585e233cc6aa64736f6c634300080a00333c73766720786d6c6e733d22687474703a2f2f7777772e77332e6f72672f323030302f737667222077696474683d2232373022206865696768743d22323730222066696c6c3d226e6f6e65223e203c706174682066696c6c3d2275726c282342292220643d224d302030683237307632373048307a222f3e3c646566733e3c66696c7465722069643d22412220636f6c6f722d696e746572706f6c6174696f6e2d66696c746572733d2273524742222066696c746572556e6974733d227573657253706163654f6e55736522206865696768743d22323730222077696474683d22323730223e3c666544726f70536861646f772064783d2230222064793d22312220737464446576696174696f6e3d22322220666c6f6f642d6f7061636974793d222e323235222077696474683d223230302522206865696768743d2232303025222f3e3c2f66696c7465723e3c2f646566733e3c7061746820643d224d37322e3836332034322e393439632d2e3636382d2e3338372d312e3432362d2e35392d322e3139372d2e3539732d312e3532392e3230342d322e3139372e35396c2d31302e30383120362e3033322d362e383520332e3933342d31302e30383120362e303332632d2e3636382e3338372d312e3432362e35392d322e3139372e3539732d312e3532392d2e3230342d322e3139372d2e35396c2d382e3031332d342e37323161342e353220342e35322030203020312d312e3538392d312e363136632d2e3338342d2e3636352d2e3539342d312e3431382d2e3630382d322e313837762d392e3331632d2e3031332d2e3737352e3138352d312e3533382e3537322d322e32303861342e323520342e323520302030203120312e3632352d312e3539356c372e3838342d342e3539632e3636382d2e33383720312e3432362d2e353920322e3139372d2e353973312e3532392e32303420322e3139372e35396c372e38383420342e353961342e353220342e353220302030203120312e35383920312e363136632e3338342e3636352e35393420312e3431382e36303820322e31383776362e3033326c362e38352d342e303635762d362e303332632e3031332d2e3737352d2e3138352d312e3533382d2e3537322d322e32303861342e323520342e32352030203020302d312e3632352d312e3539354c34312e3435362032342e3539632d2e3636382d2e3338372d312e3432362d2e35392d322e3139372d2e3539732d312e3532392e3230342d322e3139372e35396c2d31342e38363420382e36353561342e323520342e32352030203020302d312e36323520312e353935632d2e3338372e36372d2e35383520312e3433342d2e35373220322e3230387631372e343431632d2e3031332e3737352e31383520312e3533382e35373220322e32303861342e323520342e323520302030203020312e36323520312e3539356c31342e38363420382e363535632e3636382e33383720312e3432362e353920322e3139372e353973312e3532392d2e32303420322e3139372d2e35396c31302e3038312d352e39303120362e38352d342e3036352031302e3038312d352e393031632e3636382d2e33383720312e3432362d2e353920322e3139372d2e353973312e3532392e32303420322e3139372e35396c372e38383420342e353961342e353220342e353220302030203120312e35383920312e363136632e3338342e3636352e35393420312e3431382e36303820322e31383776392e333131632e3031332e3737352d2e31383520312e3533382d2e35373220322e32303861342e323520342e32352030203020312d312e36323520312e3539356c2d372e38383420342e373231632d2e3636382e3338372d312e3432362e35392d322e3139372e3539732d312e3532392d2e3230342d322e3139372d2e35396c2d372e3838342d342e353961342e353220342e35322030203020312d312e3538392d312e363136632d2e3338352d2e3636352d2e3539342d312e3431382d2e3630382d322e313837762d362e3033326c2d362e383520342e30363576362e303332632d2e3031332e3737352e31383520312e3533382e35373220322e32303861342e323520342e323520302030203020312e36323520312e3539356c31342e38363420382e363535632e3636382e33383720312e3432362e353920322e3139372e353973312e3532392d2e32303420322e3139372d2e35396c31342e3836342d382e363535632e3635372d2e33393420312e3230342d2e393520312e3538392d312e363136732e3539342d312e3431382e3630392d322e3138375635352e353338632e3031332d2e3737352d2e3138352d312e3533382d2e3537322d322e32303861342e323520342e32352030203020302d312e3632352d312e3539356c2d31342e3939332d382e3738367a222066696c6c3d2223464646222f3e3c646566733e3c6c696e6561724772616469656e742069643d2242222078313d2230222079313d2230222078323d22323730222079323d2232373022206772616469656e74556e6974733d227573657253706163654f6e557365223e3c73746f702073746f702d636f6c6f723d2223623033336436222f3e3c73746f70206f66667365743d2231222073746f702d636f6c6f723d2223653039363164222073746f702d6f7061636974793d222e3939222f3e3c2f6c696e6561724772616469656e743e3c2f646566733e3c7465787420783d2233322e352220793d223233312220666f6e742d73697a653d223237222066696c6c3d2223666666222066696c7465723d2275726c282341292220666f6e742d66616d696c793d22506c7573204a616b617274612053616e732c44656a6156752053616e732c4e6f746f20436f6c6f7220456d6f6a692c4170706c6520436f6c6f7220456d6f6a692c73616e732d73657269662220666f6e742d7765696768743d22626f6c64223e",
  "linkReferences": {},
  "deployedLinkReferences": {}
}