{
  "_format": "hh-sol-artifact-1",
  "contractName": "Domains",
  "sourceName": "contracts/Greeter.sol",
  "abi": [
    {
      "inputs": [
        {
          "internalType": "string",
          "name": "_tld",
          "type": "string"
        }
      ],
      "stateMutability": "payable",
      "type": "constructor"
    },
    {
      "inputs": [],
      "name": "AlreadyRegistered",
      "type": "error"
    },
    {
      "inputs": [
        {
          "internalType": "string",
          "name": "name",
          "type": "string"
        }
      ],
      "name": "InvalidName",
      "type": "error"
    },
    {
      "inputs": [],
      "name": "Unauthorized",
      "type": "error"
    },
    {
      "anonymous": false,
      "inputs": [
        {
          "indexed": true,
          "internalType": "address",
          "name": "owner",
          "type": "address"
        },
        {
          "indexed": true,
          "internalType": "address",
          "name": "approved",
          "type": "address"
        },
        {
          "indexed": true,
          "internalType": "uint256",
          "name": "tokenId",
          "type": "uint256"
        }
      ],
      "name": "Approval",
      "type": "event"
    },
    {
      "anonymous": false,
      "inputs": [
        {
          "indexed": true,
          "internalType": "address",
          "name": "owner",
          "type": "address"
        },
        {
          "indexed": true,
          "internalType": "address",
          "name": "operator",
          "type": "address"
        },
        {
          "indexed": false,
          "internalType": "bool",
          "name": "approved",
          "type": "bool"
        }
      ],
      "name": "ApprovalForAll",
      "type": "event"
    },
    {
      "anonymous": false,
      "inputs": [
        {
          "indexed": true,
          "internalType": "address",
          "name": "from",
          "type": "address"
        },
        {
          "indexed": true,
          "internalType": "address",
          "name": "to",
          "type": "address"
        },
        {
          "indexed": true,
          "internalType": "uint256",
          "name": "tokenId",
          "type": "uint256"
        }
      ],
      "name": "Transfer",
      "type": "event"
    },
    {
      "inputs": [
        {
          "internalType": "address",
          "name": "to",
          "type": "address"
        },
        {
          "internalType": "uint256",
          "name": "tokenId",
          "type": "uint256"
        }
      ],
      "name": "approve",
      "outputs": [],
      "stateMutability": "nonpayable",
      "type": "function"
    },
    {
      "inputs": [
        {
          "internalType": "address",
          "name": "owner",
          "type": "address"
        }
      ],
      "name": "balanceOf",
      "outputs": [
        {
          "internalType": "uint256",
          "name": "",
          "type": "uint256"
        }
      ],
      "stateMutability": "view",
      "type": "function"
    },
    {
      "inputs": [
        {
          "internalType": "string",
          "name": "name",
          "type": "string"
        }
      ],
      "name": "getAddress",
      "outputs": [
        {
          "internalType": "address",
          "name": "",
          "type": "address"
        }
      ],
      "stateMutability": "view",
      "type": "function"
    },
    {
      "inputs": [],
      "name": "getAllNames",
      "outputs": [
        {
          "internalType": "string[]",
          "name": "",
          "type": "string[]"
        }
      ],
      "stateMutability": "view",
      "type": "function"
    },
    {
      "inputs": [
        {
          "internalType": "uint256",
          "name": "tokenId",
          "type": "uint256"
        }
      ],
      "name": "getApproved",
      "outputs": [
        {
          "internalType": "address",
          "name": "",
          "type": "address"
        }
      ],
      "stateMutability": "view",
      "type": "function"
    },
    {
      "inputs": [
        {
          "internalType": "string",
          "name": "name",
          "type": "string"
        }
      ],
      "name": "getId",
      "outputs": [
        {
          "internalType": "uint256",
          "name": "",
          "type": "uint256"
        }
      ],
      "stateMutability": "view",
      "type": "function"
    },
    {
      "inputs": [
        {
          "internalType": "string",
          "name": "name",
          "type": "string"
        },
        {
          "internalType": "enum RecordType",
          "name": "recordType",
          "type": "uint8"
        }
      ],
      "name": "getRecord",
      "outputs": [
        {
          "internalType": "string",
          "name": "",
          "type": "string"
        }
      ],
      "stateMutability": "view",
      "type": "function"
    },
    {
      "inputs": [
        {
          "internalType": "string",
          "name": "name",
          "type": "string"
        }
      ],
      "name": "getRecords",
      "outputs": [
        {
          "internalType": "string[]",
          "name": "",
          "type": "string[]"
        },
        {
          "internalType": "address",
          "name": "",
          "type": "address"
        }
      ],
      "stateMutability": "view",
      "type": "function"
    },
    {
      "inputs": [
        {
          "internalType": "string",
          "name": "",
          "type": "string"
        }
      ],
      "name": "ids",
      "outputs": [
        {
          "internalType": "uint256",
          "name": "",
          "type": "uint256"
        }
      ],
      "stateMutability": "view",
      "type": "function"
    },
    {
      "inputs": [
        {
          "internalType": "address",
          "name": "owner",
          "type": "address"
        },
        {
          "internalType": "address",
          "name": "operator",
          "type": "address"
        }
      ],
      "name": "isApprovedForAll",
      "outputs": [
        {
          "internalType": "bool",
          "name": "",
          "type": "bool"
        }
      ],
      "stateMutability": "view",
      "type": "function"
    },
    {
      "inputs": [],
      "name": "isOwner",
      "outputs": [
        {
          "internalType": "bool",
          "name": "",
          "type": "bool"
        }
      ],
      "stateMutability": "view",
      "type": "function"
    },
    {
      "inputs": [
        {
          "internalType": "string",
          "name": "name",
          "type": "string"
        }
      ],
      "name": "isSet",
      "outputs": [
        {
          "internalType": "bool",
          "name": "",
          "type": "bool"
        }
      ],
      "stateMutability": "pure",
      "type": "function"
    },
    {
      "inputs": [],
      "name": "name",
      "outputs": [
        {
          "internalType": "string",
          "name": "",
          "type": "string"
        }
      ],
      "stateMutability": "view",
      "type": "function"
    },
    {
      "inputs": [
        {
          "internalType": "uint256",
          "name": "",
          "type": "uint256"
        }
      ],
      "name": "names",
      "outputs": [
        {
          "internalType": "string",
          "name": "",
          "type": "string"
        }
      ],
      "stateMutability": "view",
      "type": "function"
    },
    {
      "inputs": [],
      "name": "owner",
      "outputs": [
        {
          "internalType": "address payable",
          "name": "",
          "type": "address"
        }
      ],
      "stateMutability": "view",
      "type": "function"
    },
    {
      "inputs": [
        {
          "internalType": "uint256",
          "name": "tokenId",
          "type": "uint256"
        }
      ],
      "name": "ownerOf",
      "outputs": [
        {
          "internalType": "address",
          "name": "",
          "type": "address"
        }
      ],
      "stateMutability": "view",
      "type": "function"
    },
    {
      "inputs": [
        {
          "internalType": "string",
          "name": "name",
          "type": "string"
        }
      ],
      "name": "price",
      "outputs": [
        {
          "internalType": "uint256",
          "name": "",
          "type": "uint256"
        }
      ],
      "stateMutability": "pure",
      "type": "function"
    },
    {
      "inputs": [
        {
          "internalType": "string",
          "name": "",
          "type": "string"
        }
      ],
      "name": "records",
      "outputs": [
        {
          "internalType": "string",
          "name": "avatar",
          "type": "string"
        },
        {
          "internalType": "string",
          "name": "twitterTag",
          "type": "string"
        },
        {
          "internalType": "string",
          "name": "website",
          "type": "string"
        },
        {
          "internalType": "string",
          "name": "email",
          "type": "string"
        },
        {
          "internalType": "string",
          "name": "description",
          "type": "string"
        }
      ],
      "stateMutability": "view",
      "type": "function"
    },
    {
      "inputs": [
        {
          "internalType": "string",
          "name": "name",
          "type": "string"
        }
      ],
      "name": "register",
      "outputs": [],
      "stateMutability": "payable",
      "type": "function"
    },
    {
      "inputs": [
        {
          "internalType": "address",
          "name": "from",
          "type": "address"
        },
        {
          "internalType": "address",
          "name": "to",
          "type": "address"
        },
        {
          "internalType": "uint256",
          "name": "tokenId",
          "type": "uint256"
        }
      ],
      "name": "safeTransferFrom",
      "outputs": [],
      "stateMutability": "nonpayable",
      "type": "function"
    },
    {
      "inputs": [
        {
          "internalType": "address",
          "name": "from",
          "type": "address"
        },
        {
          "internalType": "address",
          "name": "to",
          "type": "address"
        },
        {
          "internalType": "uint256",
          "name": "tokenId",
          "type": "uint256"
        },
        {
          "internalType": "bytes",
          "name": "_data",
          "type": "bytes"
        }
      ],
      "name": "safeTransferFrom",
      "outputs": [],
      "stateMutability": "nonpayable",
      "type": "function"
    },
    {
      "inputs": [
        {
          "internalType": "address",
          "name": "operator",
          "type": "address"
        },
        {
          "internalType": "bool",
          "name": "approved",
          "type": "bool"
        }
      ],
      "name": "setApprovalForAll",
      "outputs": [],
      "stateMutability": "nonpayable",
      "type": "function"
    },
    {
      "inputs": [
        {
          "internalType": "string",
          "name": "name",
          "type": "string"
        },
        {
          "internalType": "string",
          "name": "record",
          "type": "string"
        },
        {
          "internalType": "enum RecordType",
          "name": "recordType",
          "type": "uint8"
        }
      ],
      "name": "setRecord",
      "outputs": [],
      "stateMutability": "nonpayable",
      "type": "function"
    },
    {
      "inputs": [
        {
          "internalType": "string",
          "name": "name",
          "type": "string"
        },
        {
          "internalType": "string",
          "name": "_avatar",
          "type": "string"
        },
        {
          "internalType": "string",
          "name": "_twitterTag",
          "type": "string"
        },
        {
          "internalType": "string",
          "name": "_website",
          "type": "string"
        },
        {
          "internalType": "string",
          "name": "_email",
          "type": "string"
        },
        {
          "internalType": "string",
          "name": "_description",
          "type": "string"
        }
      ],
      "name": "setRecords",
      "outputs": [],
      "stateMutability": "nonpayable",
      "type": "function"
    },
    {
      "inputs": [
        {
          "internalType": "bytes4",
          "name": "interfaceId",
          "type": "bytes4"
        }
      ],
      "name": "supportsInterface",
      "outputs": [
        {
          "internalType": "bool",
          "name": "",
          "type": "bool"
        }
      ],
      "stateMutability": "view",
      "type": "function"
    },
    {
      "inputs": [],
      "name": "symbol",
      "outputs": [
        {
          "internalType": "string",
          "name": "",
          "type": "string"
        }
      ],
      "stateMutability": "view",
      "type": "function"
    },
    {
      "inputs": [],
      "name": "tld",
      "outputs": [
        {
          "internalType": "string",
          "name": "",
          "type": "string"
        }
      ],
      "stateMutability": "view",
      "type": "function"
    },
    {
      "inputs": [
        {
          "internalType": "uint256",
          "name": "tokenId",
          "type": "uint256"
        }
      ],
      "name": "tokenURI",
      "outputs": [
        {
          "internalType": "string",
          "name": "",
          "type": "string"
        }
      ],
      "stateMutability": "view",
      "type": "function"
    },
    {
      "inputs": [
        {
          "internalType": "address",
          "name": "from",
          "type": "address"
        },
        {
          "internalType": "address",
          "name": "to",
          "type": "address"
        },
        {
          "internalType": "uint256",
          "name": "tokenId",
          "type": "uint256"
        }
      ],
      "name": "transferFrom",
      "outputs": [],
      "stateMutability": "nonpayable",
      "type": "function"
    },
    {
      "inputs": [
        {
          "internalType": "string",
          "name": "name",
          "type": "string"
        }
      ],
      "name": "valid",
      "outputs": [
        {
          "internalType": "bool",
          "name": "",
          "type": "bool"
        }
      ],
      "stateMutability": "pure",
      "type": "function"
    },
    {
      "inputs": [],
      "name": "withdraw",
      "outputs": [],
      "stateMutability": "nonpayable",
      "type": "function"
    }
  ],
  "bytecode": "0x6080604052604051806108a0016040528061086c81526020016200642461086c9139600c908051906020019062000038929190620002f5565b506040518060400160405280600d81526020017f3c2f746578743e3c2f7376673e00000000000000000000000000000000000000815250600d908051906020019062000086929190620002f5565b5060405162006c9038038062006c908339818101604052810190620000ac919062000542565b6040518060400160405280601181526020017f486f646c204e616d6520536572766963650000000000000000000000000000008152506040518060400160405280600381526020017f484e530000000000000000000000000000000000000000000000000000000000815250816000908051906020019062000130929190620002f5565b50806001908051906020019062000149929190620002f5565b50505033600a60006101000a81548173ffffffffffffffffffffffffffffffffffffffff021916908373ffffffffffffffffffffffffffffffffffffffff1602179055508060099080519060200190620001a5929190620002f5565b50620001f26040518060400160405280601881526020017f2573206e616d652073657276696365206465706c6f7965640000000000000000815250826200021060201b62002b591760201c565b62000209600b620002b660201b62002bf51760201c565b5062000690565b620002b2828260405160240162000229929190620005f0565b6040516020818303038152906040527f4b5c4277000000000000000000000000000000000000000000000000000000007bffffffffffffffffffffffffffffffffffffffffffffffffffffffff19166020820180517bffffffffffffffffffffffffffffffffffffffffffffffffffffffff8381831617835250505050620002cc60201b60201c565b5050565b6001816000016000828254019250508190555050565b60008151905060006a636f6e736f6c652e6c6f679050602083016000808483855afa5050505050565b82805462000303906200065a565b90600052602060002090601f01602090048101928262000327576000855562000373565b82601f106200034257805160ff191683800117855562000373565b8280016001018555821562000373579182015b828111156200037257825182559160200191906001019062000355565b5b50905062000382919062000386565b5090565b5b80821115620003a157600081600090555060010162000387565b5090565b6000604051905090565b600080fd5b600080fd5b600080fd5b600080fd5b6000601f19601f8301169050919050565b7f4e487b7100000000000000000000000000000000000000000000000000000000600052604160045260246000fd5b6200040e82620003c3565b810181811067ffffffffffffffff8211171562000430576200042f620003d4565b5b80604052505050565b600062000445620003a5565b905062000453828262000403565b919050565b600067ffffffffffffffff821115620004765762000475620003d4565b5b6200048182620003c3565b9050602081019050919050565b60005b83811015620004ae57808201518184015260208101905062000491565b83811115620004be576000848401525b50505050565b6000620004db620004d58462000458565b62000439565b905082815260208101848484011115620004fa57620004f9620003be565b5b620005078482856200048e565b509392505050565b600082601f830112620005275762000526620003b9565b5b815162000539848260208601620004c4565b91505092915050565b6000602082840312156200055b576200055a620003af565b5b600082015167ffffffffffffffff8111156200057c576200057b620003b4565b5b6200058a848285016200050f565b91505092915050565b600081519050919050565b600082825260208201905092915050565b6000620005bc8262000593565b620005c881856200059e565b9350620005da8185602086016200048e565b620005e581620003c3565b840191505092915050565b600060408201905081810360008301526200060c8185620005af565b90508181036020830152620006228184620005af565b90509392505050565b7f4e487b7100000000000000000000000000000000000000000000000000000000600052602260045260246000fd5b600060028204905060018216806200067357607f821691505b602082108114156200068a57620006896200062b565b5b50919050565b615d8480620006a06000396000f3fe6080604052600436106101d85760003560e01c80638f32d59b11610102578063c87b56dd11610095578063f2c298be11610064578063f2c298be14610759578063f5064fd014610775578063fb825e5f1461079e578063fe2c6198146107c9576101d8565b8063c87b56dd14610679578063e327ad61146106b6578063e985e9c5146106f3578063f0f1934614610730576101d8565b8063a22cb465116100d1578063a22cb465146105ad578063b88d4fde146105d6578063bee51f3b146105ff578063bf40fac11461063c576101d8565b80638f32d59b146104dd57806395d89b41146105085780639751e9f1146105335780639791c09714610570576101d8565b806342842e0e1161017a57806370a082311161014957806370a08231146103fa57806386e80b71146104375780638a08677d146104755780638da5cb5b146104b2576101d8565b806342842e0e146103165780634622ab031461033f578063541e771d1461037c5780636352211e146103bd576101d8565b8063095ea7b3116101b6578063095ea7b31461028257806323b872dd146102ab5780632d551432146102d45780633ccfd60b146102ff576101d8565b806301ffc9a7146101dd57806306fdde031461021a578063081812fc14610245575b600080fd5b3480156101e957600080fd5b5061020460048036038101906101ff9190613f0c565b610806565b6040516102119190613f54565b60405180910390f35b34801561022657600080fd5b5061022f6108e8565b60405161023c9190614008565b60405180910390f35b34801561025157600080fd5b5061026c60048036038101906102679190614060565b61097a565b60405161027991906140ce565b60405180910390f35b34801561028e57600080fd5b506102a960048036038101906102a49190614115565b6109ff565b005b3480156102b757600080fd5b506102d260048036038101906102cd9190614155565b610b17565b005b3480156102e057600080fd5b506102e9610b77565b6040516102f69190614008565b60405180910390f35b34801561030b57600080fd5b50610314610c05565b005b34801561032257600080fd5b5061033d60048036038101906103389190614155565b610ccb565b005b34801561034b57600080fd5b5061036660048036038101906103619190614060565b610ceb565b6040516103739190614008565b60405180910390f35b34801561038857600080fd5b506103a3600480360381019061039e91906142dd565b610d8b565b6040516103b4959493929190614326565b60405180910390f35b3480156103c957600080fd5b506103e460048036038101906103df9190614060565b61107f565b6040516103f191906140ce565b60405180910390f35b34801561040657600080fd5b50610421600480360381019061041c919061439c565b611131565b60405161042e91906143d8565b60405180910390f35b34801561044357600080fd5b5061045e60048036038101906104599190614453565b6111e9565b60405161046c9291906145ac565b60405180910390f35b34801561048157600080fd5b5061049c600480360381019061049791906142dd565b611653565b6040516104a991906143d8565b60405180910390f35b3480156104be57600080fd5b506104c7611681565b6040516104d491906145fd565b60405180910390f35b3480156104e957600080fd5b506104f26116a7565b6040516104ff9190613f54565b60405180910390f35b34801561051457600080fd5b5061051d6116ff565b60405161052a9190614008565b60405180910390f35b34801561053f57600080fd5b5061055a6004803603810190610555919061463d565b611791565b6040516105679190614008565b60405180910390f35b34801561057c57600080fd5b5061059760048036038101906105929190614453565b611c34565b6040516105a49190613f54565b60405180910390f35b3480156105b957600080fd5b506105d460048036038101906105cf91906146c9565b611ce8565b005b3480156105e257600080fd5b506105fd60048036038101906105f891906147aa565b611cfe565b005b34801561060b57600080fd5b5061062660048036038101906106219190614453565b611d60565b60405161063391906143d8565b60405180910390f35b34801561064857600080fd5b50610663600480360381019061065e9190614453565b611db8565b60405161067091906140ce565b60405180910390f35b34801561068557600080fd5b506106a0600480360381019061069b9190614060565b611dd4565b6040516106ad9190614008565b60405180910390f35b3480156106c257600080fd5b506106dd60048036038101906106d891906142dd565b61214c565b6040516106ea9190613f54565b60405180910390f35b3480156106ff57600080fd5b5061071a6004803603810190610715919061482d565b612161565b6040516107279190613f54565b60405180910390f35b34801561073c57600080fd5b506107576004803603810190610752919061486d565b6121f5565b005b610773600480360381019061076e9190614453565b612374565b005b34801561078157600080fd5b5061079c600480360381019061079791906149ba565b612640565b005b3480156107aa57600080fd5b506107b36128ad565b6040516107c09190614a4f565b60405180910390f35b3480156107d557600080fd5b506107f060048036038101906107eb9190614453565b612ab3565b6040516107fd91906143d8565b60405180910390f35b60007f80ac58cd000000000000000000000000000000000000000000000000000000007bffffffffffffffffffffffffffffffffffffffffffffffffffffffff1916827bffffffffffffffffffffffffffffffffffffffffffffffffffffffff191614806108d157507f5b5e139f000000000000000000000000000000000000000000000000000000007bffffffffffffffffffffffffffffffffffffffffffffffffffffffff1916827bffffffffffffffffffffffffffffffffffffffffffffffffffffffff1916145b806108e157506108e082612c0b565b5b9050919050565b6060600080546108f790614aa0565b80601f016020809104026020016040519081016040528092919081815260200182805461092390614aa0565b80156109705780601f1061094557610100808354040283529160200191610970565b820191906000526020600020905b81548152906001019060200180831161095357829003601f168201915b5050505050905090565b600061098582612c75565b6109c4576040517f08c379a00000000000000000000000000000000000000000000000000000000081526004016109bb90614b44565b60405180910390fd5b6004600083815260200190815260200160002060009054906101000a900473ffffffffffffffffffffffffffffffffffffffff169050919050565b6000610a0a8261107f565b90508073ffffffffffffffffffffffffffffffffffffffff168373ffffffffffffffffffffffffffffffffffffffff161415610a7b576040517f08c379a0000000000000000000000000000000000000000000000000000000008152600401610a7290614bd6565b60405180910390fd5b8073ffffffffffffffffffffffffffffffffffffffff16610a9a612ce1565b73ffffffffffffffffffffffffffffffffffffffff161480610ac95750610ac881610ac3612ce1565b612161565b5b610b08576040517f08c379a0000000000000000000000000000000000000000000000000000000008152600401610aff90614c68565b60405180910390fd5b610b128383612ce9565b505050565b610b28610b22612ce1565b82612da2565b610b67576040517f08c379a0000000000000000000000000000000000000000000000000000000008152600401610b5e90614cfa565b60405180910390fd5b610b72838383612e80565b505050565b60098054610b8490614aa0565b80601f0160208091040260200160405190810160405280929190818152602001828054610bb090614aa0565b8015610bfd5780601f10610bd257610100808354040283529160200191610bfd565b820191906000526020600020905b815481529060010190602001808311610be057829003601f168201915b505050505081565b610c0d6116a7565b610c1657600080fd5b600047905060003373ffffffffffffffffffffffffffffffffffffffff1682604051610c4190614d4b565b60006040518083038185875af1925050503d8060008114610c7e576040519150601f19603f3d011682016040523d82523d6000602084013e610c83565b606091505b5050905080610cc7576040517f08c379a0000000000000000000000000000000000000000000000000000000008152600401610cbe90614dac565b60405180910390fd5b5050565b610ce683838360405180602001604052806000815250611cfe565b505050565b60076020528060005260406000206000915090508054610d0a90614aa0565b80601f0160208091040260200160405190810160405280929190818152602001828054610d3690614aa0565b8015610d835780601f10610d5857610100808354040283529160200191610d83565b820191906000526020600020905b815481529060010190602001808311610d6657829003601f168201915b505050505081565b600681805160208101820180518482526020830160208501208183528095505050505050600091509050806000018054610dc490614aa0565b80601f0160208091040260200160405190810160405280929190818152602001828054610df090614aa0565b8015610e3d5780601f10610e1257610100808354040283529160200191610e3d565b820191906000526020600020905b815481529060010190602001808311610e2057829003601f168201915b505050505090806001018054610e5290614aa0565b80601f0160208091040260200160405190810160405280929190818152602001828054610e7e90614aa0565b8015610ecb5780601f10610ea057610100808354040283529160200191610ecb565b820191906000526020600020905b815481529060010190602001808311610eae57829003601f168201915b505050505090806002018054610ee090614aa0565b80601f0160208091040260200160405190810160405280929190818152602001828054610f0c90614aa0565b8015610f595780601f10610f2e57610100808354040283529160200191610f59565b820191906000526020600020905b815481529060010190602001808311610f3c57829003601f168201915b505050505090806003018054610f6e90614aa0565b80601f0160208091040260200160405190810160405280929190818152602001828054610f9a90614aa0565b8015610fe75780601f10610fbc57610100808354040283529160200191610fe7565b820191906000526020600020905b815481529060010190602001808311610fca57829003601f168201915b505050505090806004018054610ffc90614aa0565b80601f016020809104026020016040519081016040528092919081815260200182805461102890614aa0565b80156110755780601f1061104a57610100808354040283529160200191611075565b820191906000526020600020905b81548152906001019060200180831161105857829003601f168201915b5050505050905085565b6000806002600084815260200190815260200160002060009054906101000a900473ffffffffffffffffffffffffffffffffffffffff169050600073ffffffffffffffffffffffffffffffffffffffff168173ffffffffffffffffffffffffffffffffffffffff161415611128576040517f08c379a000000000000000000000000000000000000000000000000000000000815260040161111f90614e3e565b60405180910390fd5b80915050919050565b60008073ffffffffffffffffffffffffffffffffffffffff168273ffffffffffffffffffffffffffffffffffffffff1614156111a2576040517f08c379a000000000000000000000000000000000000000000000000000000000815260040161119990614ed0565b60405180910390fd5b600360008373ffffffffffffffffffffffffffffffffffffffff1673ffffffffffffffffffffffffffffffffffffffff168152602001908152602001600020549050919050565b60606000806111f88585611db8565b90506000600567ffffffffffffffff811115611217576112166141b2565b5b60405190808252806020026020018201604052801561124a57816020015b60608152602001906001900390816112355790505b5090506006868660405161125f929190614f20565b9081526020016040518091039020600001805461127b90614aa0565b80601f01602080910402602001604051908101604052809291908181526020018280546112a790614aa0565b80156112f45780601f106112c9576101008083540402835291602001916112f4565b820191906000526020600020905b8154815290600101906020018083116112d757829003601f168201915b50505050508160008151811061130d5761130c614f39565b5b60200260200101819052506006868660405161132a929190614f20565b9081526020016040518091039020600101805461134690614aa0565b80601f016020809104026020016040519081016040528092919081815260200182805461137290614aa0565b80156113bf5780601f10611394576101008083540402835291602001916113bf565b820191906000526020600020905b8154815290600101906020018083116113a257829003601f168201915b5050505050816001815181106113d8576113d7614f39565b5b6020026020010181905250600686866040516113f5929190614f20565b9081526020016040518091039020600201805461141190614aa0565b80601f016020809104026020016040519081016040528092919081815260200182805461143d90614aa0565b801561148a5780601f1061145f5761010080835404028352916020019161148a565b820191906000526020600020905b81548152906001019060200180831161146d57829003601f168201915b5050505050816002815181106114a3576114a2614f39565b5b6020026020010181905250600686866040516114c0929190614f20565b908152602001604051809103902060030180546114dc90614aa0565b80601f016020809104026020016040519081016040528092919081815260200182805461150890614aa0565b80156115555780601f1061152a57610100808354040283529160200191611555565b820191906000526020600020905b81548152906001019060200180831161153857829003601f168201915b50505050508160038151811061156e5761156d614f39565b5b60200260200101819052506006868660405161158b929190614f20565b908152602001604051809103902060040180546115a790614aa0565b80601f01602080910402602001604051908101604052809291908181526020018280546115d390614aa0565b80156116205780601f106115f557610100808354040283529160200191611620565b820191906000526020600020905b81548152906001019060200180831161160357829003601f168201915b50505050508160048151811061163957611638614f39565b5b602002602001018190525080829350935050509250929050565b6008818051602081018201805184825260208301602085012081835280955050505050506000915090505481565b600a60009054906101000a900473ffffffffffffffffffffffffffffffffffffffff1681565b6000600a60009054906101000a900473ffffffffffffffffffffffffffffffffffffffff1673ffffffffffffffffffffffffffffffffffffffff163373ffffffffffffffffffffffffffffffffffffffff1614905090565b60606001805461170e90614aa0565b80601f016020809104026020016040519081016040528092919081815260200182805461173a90614aa0565b80156117875780601f1061175c57610100808354040283529160200191611787565b820191906000526020600020905b81548152906001019060200180831161176a57829003601f168201915b5050505050905090565b6060600060048111156117a7576117a6614f68565b5b8260048111156117ba576117b9614f68565b5b141561187357600684846040516117d2929190614f20565b908152602001604051809103902060000180546117ee90614aa0565b80601f016020809104026020016040519081016040528092919081815260200182805461181a90614aa0565b80156118675780601f1061183c57610100808354040283529160200191611867565b820191906000526020600020905b81548152906001019060200180831161184a57829003601f168201915b50505050509050611c2d565b6001600481111561188757611886614f68565b5b82600481111561189a57611899614f68565b5b141561195357600684846040516118b2929190614f20565b908152602001604051809103902060010180546118ce90614aa0565b80601f01602080910402602001604051908101604052809291908181526020018280546118fa90614aa0565b80156119475780601f1061191c57610100808354040283529160200191611947565b820191906000526020600020905b81548152906001019060200180831161192a57829003601f168201915b50505050509050611c2d565b6002600481111561196757611966614f68565b5b82600481111561197a57611979614f68565b5b1415611a335760068484604051611992929190614f20565b908152602001604051809103902060020180546119ae90614aa0565b80601f01602080910402602001604051908101604052809291908181526020018280546119da90614aa0565b8015611a275780601f106119fc57610100808354040283529160200191611a27565b820191906000526020600020905b815481529060010190602001808311611a0a57829003601f168201915b50505050509050611c2d565b60036004811115611a4757611a46614f68565b5b826004811115611a5a57611a59614f68565b5b1415611b135760068484604051611a72929190614f20565b90815260200160405180910390206003018054611a8e90614aa0565b80601f0160208091040260200160405190810160405280929190818152602001828054611aba90614aa0565b8015611b075780601f10611adc57610100808354040283529160200191611b07565b820191906000526020600020905b815481529060010190602001808311611aea57829003601f168201915b50505050509050611c2d565b600480811115611b2657611b25614f68565b5b826004811115611b3957611b38614f68565b5b1415611bf25760068484604051611b51929190614f20565b90815260200160405180910390206004018054611b6d90614aa0565b80601f0160208091040260200160405190810160405280929190818152602001828054611b9990614aa0565b8015611be65780601f10611bbb57610100808354040283529160200191611be6565b820191906000526020600020905b815481529060010190602001808311611bc957829003601f168201915b50505050509050611c2d565b6040517f08c379a0000000000000000000000000000000000000000000000000000000008152600401611c2490614fe3565b60405180910390fd5b9392505050565b60006003611c8584848080601f016020809104026020016040519081016040528093929190818152602001838380828437600081840152601f19601f820116905080830192505050505050506130e7565b10158015611ce05750600c611cdd84848080601f016020809104026020016040519081016040528093929190818152602001838380828437600081840152601f19601f820116905080830192505050505050506130e7565b11155b905092915050565b611cfa611cf3612ce1565b838361329c565b5050565b611d0f611d09612ce1565b83612da2565b611d4e576040517f08c379a0000000000000000000000000000000000000000000000000000000008152600401611d4590614cfa565b60405180910390fd5b611d5a84848484613409565b50505050565b60008060088484604051611d75929190614f20565b9081526020016040518091039020541415611d8f57600080fd5b60088383604051611da1929190614f20565b908152602001604051809103902054905092915050565b6000611dcc611dc78484611d60565b61107f565b905092915050565b6060611e7a600760008481526020019081526020016000208054611df790614aa0565b80601f0160208091040260200160405190810160405280929190818152602001828054611e2390614aa0565b8015611e705780601f10611e4557610100808354040283529160200191611e70565b820191906000526020600020905b815481529060010190602001808311611e5357829003601f168201915b505050505061214c565b611eb9576040517f08c379a0000000000000000000000000000000000000000000000000000000008152600401611eb09061504f565b60405180910390fd5b6000600760008481526020019081526020016000206009604051602001611ee192919061514f565b60405160208183030381529060405290506000611efd826130e7565b90506000611f0a82613465565b90506060611fd2600660076000898152602001908152602001600020604051611f33919061517e565b90815260200160405180910390206000018054611f4f90614aa0565b80601f0160208091040260200160405190810160405280929190818152602001828054611f7b90614aa0565b8015611fc85780601f10611f9d57610100808354040283529160200191611fc8565b820191906000526020600020905b815481529060010190602001808311611fab57829003601f168201915b505050505061214c565b1561209a57600660076000888152602001908152602001600020604051611ff9919061517e565b9081526020016040518091039020600001805461201590614aa0565b80601f016020809104026020016040519081016040528092919081815260200182805461204190614aa0565b801561208e5780601f106120635761010080835404028352916020019161208e565b820191906000526020600020905b81548152906001019060200180831161207157829003601f168201915b505050505090506120f0565b6000600c85600d6040516020016120b3939291906151c6565b60405160208183030381529060405290506120cd816135c6565b6040516020016120dd9190615243565b6040516020818303038152906040529150505b600061211e85838560405160200161210a939291906153e1565b6040516020818303038152906040526135c6565b905080604051602001612131919061548a565b60405160208183030381529060405295505050505050919050565b600080612158836130e7565b14159050919050565b6000600560008473ffffffffffffffffffffffffffffffffffffffff1673ffffffffffffffffffffffffffffffffffffffff16815260200190815260200160002060008373ffffffffffffffffffffffffffffffffffffffff1673ffffffffffffffffffffffffffffffffffffffff16815260200190815260200160002060009054906101000a900460ff16905092915050565b6121ff8b8b611db8565b73ffffffffffffffffffffffffffffffffffffffff163373ffffffffffffffffffffffffffffffffffffffff1614612263576040517f82b4290000000000000000000000000000000000000000000000000000000000815260040160405180910390fd5b8860068c8c604051612276929190614f20565b9081526020016040518091039020600001908051906020019061229a929190613d77565b50878760068d8d6040516122af929190614f20565b908152602001604051809103902060010191906122cd929190613dfd565b50858560068d8d6040516122e2929190614f20565b90815260200160405180910390206002019190612300929190613dfd565b50838360068d8d604051612315929190614f20565b90815260200160405180910390206003019190612333929190613dfd565b50818160068d8d604051612348929190614f20565b90815260200160405180910390206004019190612366929190613dfd565b505050505050505050505050565b600060088383604051612388929190614f20565b908152602001604051809103902054146123ce576040517f3a81d6fc00000000000000000000000000000000000000000000000000000000815260040160405180910390fd5b6123d88282611c34565b61241b5781816040517f7f19f48d0000000000000000000000000000000000000000000000000000000081526004016124129291906154d9565b60405180910390fd5b60003073ffffffffffffffffffffffffffffffffffffffff1663fe2c619884846040518363ffffffff1660e01b81526004016124589291906154d9565b602060405180830381865afa158015612475573d6000803e3d6000fd5b505050506040513d601f19601f820116820180604052508101906124999190615512565b9050803410156124de576040517f08c379a00000000000000000000000000000000000000000000000000000000081526004016124d59061558b565b60405180910390fd5b60006124ea600b61375e565b90506125de604051806060016040528060318152602001615cde6031913985858080601f016020809104026020016040519081016040528093929190818152602001838380828437600081840152601f19601f820116905080830192505050505050506009805461255a90614aa0565b80601f016020809104026020016040519081016040528092919081815260200182805461258690614aa0565b80156125d35780601f106125a8576101008083540402835291602001916125d3565b820191906000526020600020905b8154815290600101906020018083116125b657829003601f168201915b50505050508461376c565b6125e8338261380e565b838360076000848152602001908152602001600020919061260a929190613dfd565b50806008858560405161261e929190614f20565b90815260200160405180910390208190555061263a600b612bf5565b50505050565b61264a8585611db8565b73ffffffffffffffffffffffffffffffffffffffff163373ffffffffffffffffffffffffffffffffffffffff16146126ae576040517f82b4290000000000000000000000000000000000000000000000000000000000815260040160405180910390fd5b600060048111156126c2576126c1614f68565b5b8160048111156126d5576126d4614f68565b5b1415612713578282600687876040516126ef929190614f20565b9081526020016040518091039020600001919061270d929190613dfd565b506128a6565b6001600481111561272757612726614f68565b5b81600481111561273a57612739614f68565b5b141561277857828260068787604051612754929190614f20565b90815260200160405180910390206001019190612772929190613dfd565b506128a5565b6002600481111561278c5761278b614f68565b5b81600481111561279f5761279e614f68565b5b14156127dd578282600687876040516127b9929190614f20565b908152602001604051809103902060020191906127d7929190613dfd565b506128a4565b600360048111156127f1576127f0614f68565b5b81600481111561280457612803614f68565b5b14156128425782826006878760405161281e929190614f20565b9081526020016040518091039020600301919061283c929190613dfd565b506128a3565b60048081111561285557612854614f68565b5b81600481111561286857612867614f68565b5b14156128a257828260068787604051612882929190614f20565b908152602001604051809103902060040191906128a0929190613dfd565b505b5b5b5b5b5050505050565b60606128ed6040518060400160405280601f81526020017f47657474696e6720616c6c206e616d65732066726f6d20636f6e74726163740081525061382c565b600060016128fb600b61375e565b61290591906155da565b67ffffffffffffffff81111561291e5761291d6141b2565b5b60405190808252806020026020018201604052801561295157816020015b606081526020019060019003908161293c5790505b5090506000600190505b612965600b61375e565b811015612aab5760076000828152602001908152602001600020805461298a90614aa0565b80601f01602080910402602001604051908101604052809291908181526020018280546129b690614aa0565b8015612a035780601f106129d857610100808354040283529160200191612a03565b820191906000526020600020905b8154815290600101906020018083116129e657829003601f168201915b505050505082600183612a1691906155da565b81518110612a2757612a26614f39565b5b6020026020010181905250612a986040518060400160405280601781526020017f4e616d6520666f7220746f6b656e2025642069732025730000000000000000008152508284600185612a7a91906155da565b81518110612a8b57612a8a614f39565b5b60200260200101516138c5565b8080612aa39061560e565b91505061295b565b508091505090565b600080612b0384848080601f016020809104026020016040519081016040528093929190818152602001838380828437600081840152601f19601f820116905080830192505050505050506130e7565b905060008111612b1257600080fd5b6003811415612b2c576706f05b59d3b20000915050612b53565b6004811415612b4657670429d069189e0000915050612b53565b67016345785d8a00009150505b92915050565b612bf18282604051602401612b6f929190615657565b6040516020818303038152906040527f4b5c4277000000000000000000000000000000000000000000000000000000007bffffffffffffffffffffffffffffffffffffffffffffffffffffffff19166020820180517bffffffffffffffffffffffffffffffffffffffffffffffffffffffff8381831617835250505050613964565b5050565b6001816000016000828254019250508190555050565b60007f01ffc9a7000000000000000000000000000000000000000000000000000000007bffffffffffffffffffffffffffffffffffffffffffffffffffffffff1916827bffffffffffffffffffffffffffffffffffffffffffffffffffffffff1916149050919050565b60008073ffffffffffffffffffffffffffffffffffffffff166002600084815260200190815260200160002060009054906101000a900473ffffffffffffffffffffffffffffffffffffffff1673ffffffffffffffffffffffffffffffffffffffff1614159050919050565b600033905090565b816004600083815260200190815260200160002060006101000a81548173ffffffffffffffffffffffffffffffffffffffff021916908373ffffffffffffffffffffffffffffffffffffffff160217905550808273ffffffffffffffffffffffffffffffffffffffff16612d5c8361107f565b73ffffffffffffffffffffffffffffffffffffffff167f8c5be1e5ebec7d5bd14f71427d1e84f3dd0314c0f7b2291e5b200ac8c7c3b92560405160405180910390a45050565b6000612dad82612c75565b612dec576040517f08c379a0000000000000000000000000000000000000000000000000000000008152600401612de390615700565b60405180910390fd5b6000612df78361107f565b90508073ffffffffffffffffffffffffffffffffffffffff168473ffffffffffffffffffffffffffffffffffffffff161480612e6657508373ffffffffffffffffffffffffffffffffffffffff16612e4e8461097a565b73ffffffffffffffffffffffffffffffffffffffff16145b80612e775750612e768185612161565b5b91505092915050565b8273ffffffffffffffffffffffffffffffffffffffff16612ea08261107f565b73ffffffffffffffffffffffffffffffffffffffff1614612ef6576040517f08c379a0000000000000000000000000000000000000000000000000000000008152600401612eed90615792565b60405180910390fd5b600073ffffffffffffffffffffffffffffffffffffffff168273ffffffffffffffffffffffffffffffffffffffff161415612f66576040517f08c379a0000000000000000000000000000000000000000000000000000000008152600401612f5d90615824565b60405180910390fd5b612f7183838361398d565b612f7c600082612ce9565b6001600360008573ffffffffffffffffffffffffffffffffffffffff1673ffffffffffffffffffffffffffffffffffffffff1681526020019081526020016000206000828254612fcc91906155da565b925050819055506001600360008473ffffffffffffffffffffffffffffffffffffffff1673ffffffffffffffffffffffffffffffffffffffff16815260200190815260200160002060008282546130239190615844565b92505081905550816002600083815260200190815260200160002060006101000a81548173ffffffffffffffffffffffffffffffffffffffff021916908373ffffffffffffffffffffffffffffffffffffffff160217905550808273ffffffffffffffffffffffffffffffffffffffff168473ffffffffffffffffffffffffffffffffffffffff167fddf252ad1be2c89b69c2b068fc378daa952ba7f163c4a11628f55a4df523b3ef60405160405180910390a46130e2838383613992565b505050565b60008060008084519050600092505b8082101561329157600085838151811061311357613112614f39565b5b602001015160f81c60f81b9050608060f81b817effffffffffffffffffffffffffffffffffffffffffffffffffffffffffffff191610156131625760018361315b9190615844565b925061327d565b60e060f81b817effffffffffffffffffffffffffffffffffffffffffffffffffffffffffffff191610156131a45760028361319d9190615844565b925061327c565b60f060f81b817effffffffffffffffffffffffffffffffffffffffffffffffffffffffffffff191610156131e6576003836131df9190615844565b925061327b565b60f8801b817effffffffffffffffffffffffffffffffffffffffffffffffffffffffffffff19161015613227576004836132209190615844565b925061327a565b60fc60f81b817effffffffffffffffffffffffffffffffffffffffffffffffffffffffffffff19161015613269576005836132629190615844565b9250613279565b6006836132769190615844565b92505b5b5b5b5b5082806132899061560e565b9350506130f6565b829350505050919050565b8173ffffffffffffffffffffffffffffffffffffffff168373ffffffffffffffffffffffffffffffffffffffff16141561330b576040517f08c379a0000000000000000000000000000000000000000000000000000000008152600401613302906158e6565b60405180910390fd5b80600560008573ffffffffffffffffffffffffffffffffffffffff1673ffffffffffffffffffffffffffffffffffffffff16815260200190815260200160002060008473ffffffffffffffffffffffffffffffffffffffff1673ffffffffffffffffffffffffffffffffffffffff16815260200190815260200160002060006101000a81548160ff0219169083151502179055508173ffffffffffffffffffffffffffffffffffffffff168373ffffffffffffffffffffffffffffffffffffffff167f17307eab39ab6107e8899845ad3d59bd9653f200f220920489ca2b5937696c31836040516133fc9190613f54565b60405180910390a3505050565b613414848484612e80565b61342084848484613997565b61345f576040517f08c379a000000000000000000000000000000000000000000000000000000000815260040161345690615978565b60405180910390fd5b50505050565b606060008214156134ad576040518060400160405280600181526020017f300000000000000000000000000000000000000000000000000000000000000081525090506135c1565b600082905060005b600082146134df5780806134c89061560e565b915050600a826134d891906159c7565b91506134b5565b60008167ffffffffffffffff8111156134fb576134fa6141b2565b5b6040519080825280601f01601f19166020018201604052801561352d5781602001600182028036833780820191505090505b5090505b600085146135ba5760018261354691906155da565b9150600a8561355591906159f8565b60306135619190615844565b60f81b81838151811061357757613576614f39565b5b60200101907effffffffffffffffffffffffffffffffffffffffffffffffffffffffffffff1916908160001a905350600a856135b391906159c7565b9450613531565b8093505050505b919050565b606060008251905060008114156135ef5760405180602001604052806000815250915050613759565b600060036002836136009190615844565b61360a91906159c7565b60046136169190615a29565b905060006020826136279190615844565b67ffffffffffffffff8111156136405761363f6141b2565b5b6040519080825280601f01601f1916602001820160405280156136725781602001600182028036833780820191505090505b5090506000604051806060016040528060408152602001615d0f604091399050600181016020830160005b868110156137165760038101905062ffffff818a015116603f8160121c168401518060081b905060ff603f83600c1c1686015116810190508060081b905060ff603f8360061c1686015116810190508060081b905060ff603f831686015116810190508060e01b9050808452600484019350505061369d565b50600386066001811461373057600281146137405761374b565b613d3d60f01b600283035261374b565b603d60f81b60018303525b508484525050819450505050505b919050565b600081600001549050919050565b613808848484846040516024016137869493929190615a83565b6040516020818303038152906040527f9fd009f5000000000000000000000000000000000000000000000000000000007bffffffffffffffffffffffffffffffffffffffffffffffffffffffff19166020820180517bffffffffffffffffffffffffffffffffffffffffffffffffffffffff8381831617835250505050613964565b50505050565b613828828260405180602001604052806000815250613b1f565b5050565b6138c2816040516024016138409190614008565b6040516020818303038152906040527f41304fac000000000000000000000000000000000000000000000000000000007bffffffffffffffffffffffffffffffffffffffffffffffffffffffff19166020820180517bffffffffffffffffffffffffffffffffffffffffffffffffffffffff8381831617835250505050613964565b50565b61395f8383836040516024016138dd93929190615add565b6040516020818303038152906040527fa3f5c739000000000000000000000000000000000000000000000000000000007bffffffffffffffffffffffffffffffffffffffffffffffffffffffff19166020820180517bffffffffffffffffffffffffffffffffffffffffffffffffffffffff8381831617835250505050613964565b505050565b60008151905060006a636f6e736f6c652e6c6f679050602083016000808483855afa5050505050565b505050565b505050565b60006139b88473ffffffffffffffffffffffffffffffffffffffff16613b7a565b15613b12578373ffffffffffffffffffffffffffffffffffffffff1663150b7a026139e1612ce1565b8786866040518563ffffffff1660e01b8152600401613a039493929190615b77565b6020604051808303816000875af1925050508015613a3f57506040513d601f19601f82011682018060405250810190613a3c9190615bd8565b60015b613ac2573d8060008114613a6f576040519150601f19603f3d011682016040523d82523d6000602084013e613a74565b606091505b50600081511415613aba576040517f08c379a0000000000000000000000000000000000000000000000000000000008152600401613ab190615978565b60405180910390fd5b805181602001fd5b63150b7a0260e01b7bffffffffffffffffffffffffffffffffffffffffffffffffffffffff1916817bffffffffffffffffffffffffffffffffffffffffffffffffffffffff191614915050613b17565b600190505b949350505050565b613b298383613b9d565b613b366000848484613997565b613b75576040517f08c379a0000000000000000000000000000000000000000000000000000000008152600401613b6c90615978565b60405180910390fd5b505050565b6000808273ffffffffffffffffffffffffffffffffffffffff163b119050919050565b600073ffffffffffffffffffffffffffffffffffffffff168273ffffffffffffffffffffffffffffffffffffffff161415613c0d576040517f08c379a0000000000000000000000000000000000000000000000000000000008152600401613c0490615c51565b60405180910390fd5b613c1681612c75565b15613c56576040517f08c379a0000000000000000000000000000000000000000000000000000000008152600401613c4d90615cbd565b60405180910390fd5b613c626000838361398d565b6001600360008473ffffffffffffffffffffffffffffffffffffffff1673ffffffffffffffffffffffffffffffffffffffff1681526020019081526020016000206000828254613cb29190615844565b92505081905550816002600083815260200190815260200160002060006101000a81548173ffffffffffffffffffffffffffffffffffffffff021916908373ffffffffffffffffffffffffffffffffffffffff160217905550808273ffffffffffffffffffffffffffffffffffffffff16600073ffffffffffffffffffffffffffffffffffffffff167fddf252ad1be2c89b69c2b068fc378daa952ba7f163c4a11628f55a4df523b3ef60405160405180910390a4613d7360008383613992565b5050565b828054613d8390614aa0565b90600052602060002090601f016020900481019282613da55760008555613dec565b82601f10613dbe57805160ff1916838001178555613dec565b82800160010185558215613dec579182015b82811115613deb578251825591602001919060010190613dd0565b5b509050613df99190613e83565b5090565b828054613e0990614aa0565b90600052602060002090601f016020900481019282613e2b5760008555613e72565b82601f10613e4457803560ff1916838001178555613e72565b82800160010185558215613e72579182015b82811115613e71578235825591602001919060010190613e56565b5b509050613e7f9190613e83565b5090565b5b80821115613e9c576000816000905550600101613e84565b5090565b6000604051905090565b600080fd5b600080fd5b60007fffffffff0000000000000000000000000000000000000000000000000000000082169050919050565b613ee981613eb4565b8114613ef457600080fd5b50565b600081359050613f0681613ee0565b92915050565b600060208284031215613f2257613f21613eaa565b5b6000613f3084828501613ef7565b91505092915050565b60008115159050919050565b613f4e81613f39565b82525050565b6000602082019050613f696000830184613f45565b92915050565b600081519050919050565b600082825260208201905092915050565b60005b83811015613fa9578082015181840152602081019050613f8e565b83811115613fb8576000848401525b50505050565b6000601f19601f8301169050919050565b6000613fda82613f6f565b613fe48185613f7a565b9350613ff4818560208601613f8b565b613ffd81613fbe565b840191505092915050565b600060208201905081810360008301526140228184613fcf565b905092915050565b6000819050919050565b61403d8161402a565b811461404857600080fd5b50565b60008135905061405a81614034565b92915050565b60006020828403121561407657614075613eaa565b5b60006140848482850161404b565b91505092915050565b600073ffffffffffffffffffffffffffffffffffffffff82169050919050565b60006140b88261408d565b9050919050565b6140c8816140ad565b82525050565b60006020820190506140e360008301846140bf565b92915050565b6140f2816140ad565b81146140fd57600080fd5b50565b60008135905061410f816140e9565b92915050565b6000806040838503121561412c5761412b613eaa565b5b600061413a85828601614100565b925050602061414b8582860161404b565b9150509250929050565b60008060006060848603121561416e5761416d613eaa565b5b600061417c86828701614100565b935050602061418d86828701614100565b925050604061419e8682870161404b565b9150509250925092565b600080fd5b600080fd5b7f4e487b7100000000000000000000000000000000000000000000000000000000600052604160045260246000fd5b6141ea82613fbe565b810181811067ffffffffffffffff82111715614209576142086141b2565b5b80604052505050565b600061421c613ea0565b905061422882826141e1565b919050565b600067ffffffffffffffff821115614248576142476141b2565b5b61425182613fbe565b9050602081019050919050565b82818337600083830152505050565b600061428061427b8461422d565b614212565b90508281526020810184848401111561429c5761429b6141ad565b5b6142a784828561425e565b509392505050565b600082601f8301126142c4576142c36141a8565b5b81356142d484826020860161426d565b91505092915050565b6000602082840312156142f3576142f2613eaa565b5b600082013567ffffffffffffffff81111561431157614310613eaf565b5b61431d848285016142af565b91505092915050565b600060a08201905081810360008301526143408188613fcf565b905081810360208301526143548187613fcf565b905081810360408301526143688186613fcf565b9050818103606083015261437c8185613fcf565b905081810360808301526143908184613fcf565b90509695505050505050565b6000602082840312156143b2576143b1613eaa565b5b60006143c084828501614100565b91505092915050565b6143d28161402a565b82525050565b60006020820190506143ed60008301846143c9565b92915050565b600080fd5b600080fd5b60008083601f840112614413576144126141a8565b5b8235905067ffffffffffffffff8111156144305761442f6143f3565b5b60208301915083600182028301111561444c5761444b6143f8565b5b9250929050565b6000806020838503121561446a57614469613eaa565b5b600083013567ffffffffffffffff81111561448857614487613eaf565b5b614494858286016143fd565b92509250509250929050565b600081519050919050565b600082825260208201905092915050565b6000819050602082019050919050565b600082825260208201905092915050565b60006144e882613f6f565b6144f281856144cc565b9350614502818560208601613f8b565b61450b81613fbe565b840191505092915050565b600061452283836144dd565b905092915050565b6000602082019050919050565b6000614542826144a0565b61454c81856144ab565b93508360208202850161455e856144bc565b8060005b8581101561459a578484038952815161457b8582614516565b94506145868361452a565b925060208a01995050600181019050614562565b50829750879550505050505092915050565b600060408201905081810360008301526145c68185614537565b90506145d560208301846140bf565b9392505050565b60006145e78261408d565b9050919050565b6145f7816145dc565b82525050565b600060208201905061461260008301846145ee565b92915050565b6005811061462557600080fd5b50565b60008135905061463781614618565b92915050565b60008060006040848603121561465657614655613eaa565b5b600084013567ffffffffffffffff81111561467457614673613eaf565b5b614680868287016143fd565b9350935050602061469386828701614628565b9150509250925092565b6146a681613f39565b81146146b157600080fd5b50565b6000813590506146c38161469d565b92915050565b600080604083850312156146e0576146df613eaa565b5b60006146ee85828601614100565b92505060206146ff858286016146b4565b9150509250929050565b600067ffffffffffffffff821115614724576147236141b2565b5b61472d82613fbe565b9050602081019050919050565b600061474d61474884614709565b614212565b905082815260208101848484011115614769576147686141ad565b5b61477484828561425e565b509392505050565b600082601f830112614791576147906141a8565b5b81356147a184826020860161473a565b91505092915050565b600080600080608085870312156147c4576147c3613eaa565b5b60006147d287828801614100565b94505060206147e387828801614100565b93505060406147f48782880161404b565b925050606085013567ffffffffffffffff81111561481557614814613eaf565b5b6148218782880161477c565b91505092959194509250565b6000806040838503121561484457614843613eaa565b5b600061485285828601614100565b925050602061486385828601614100565b9150509250929050565b600080600080600080600080600080600060c08c8e03121561489257614891613eaa565b5b60008c013567ffffffffffffffff8111156148b0576148af613eaf565b5b6148bc8e828f016143fd565b9b509b505060208c013567ffffffffffffffff8111156148df576148de613eaf565b5b6148eb8e828f016142af565b99505060408c013567ffffffffffffffff81111561490c5761490b613eaf565b5b6149188e828f016143fd565b985098505060608c013567ffffffffffffffff81111561493b5761493a613eaf565b5b6149478e828f016143fd565b965096505060808c013567ffffffffffffffff81111561496a57614969613eaf565b5b6149768e828f016143fd565b945094505060a08c013567ffffffffffffffff81111561499957614998613eaf565b5b6149a58e828f016143fd565b92509250509295989b509295989b9093969950565b6000806000806000606086880312156149d6576149d5613eaa565b5b600086013567ffffffffffffffff8111156149f4576149f3613eaf565b5b614a00888289016143fd565b9550955050602086013567ffffffffffffffff811115614a2357614a22613eaf565b5b614a2f888289016143fd565b93509350506040614a4288828901614628565b9150509295509295909350565b60006020820190508181036000830152614a698184614537565b905092915050565b7f4e487b7100000000000000000000000000000000000000000000000000000000600052602260045260246000fd5b60006002820490506001821680614ab857607f821691505b60208210811415614acc57614acb614a71565b5b50919050565b7f4552433732313a20617070726f76656420717565727920666f72206e6f6e657860008201527f697374656e7420746f6b656e0000000000000000000000000000000000000000602082015250565b6000614b2e602c83613f7a565b9150614b3982614ad2565b604082019050919050565b60006020820190508181036000830152614b5d81614b21565b9050919050565b7f4552433732313a20617070726f76616c20746f2063757272656e74206f776e6560008201527f7200000000000000000000000000000000000000000000000000000000000000602082015250565b6000614bc0602183613f7a565b9150614bcb82614b64565b604082019050919050565b60006020820190508181036000830152614bef81614bb3565b9050919050565b7f4552433732313a20617070726f76652063616c6c6572206973206e6f74206f7760008201527f6e6572206e6f7220617070726f76656420666f7220616c6c0000000000000000602082015250565b6000614c52603883613f7a565b9150614c5d82614bf6565b604082019050919050565b60006020820190508181036000830152614c8181614c45565b9050919050565b7f4552433732313a207472616e736665722063616c6c6572206973206e6f74206f60008201527f776e6572206e6f7220617070726f766564000000000000000000000000000000602082015250565b6000614ce4603183613f7a565b9150614cef82614c88565b604082019050919050565b60006020820190508181036000830152614d1381614cd7565b9050919050565b600081905092915050565b50565b6000614d35600083614d1a565b9150614d4082614d25565b600082019050919050565b6000614d5682614d28565b9150819050919050565b7f4661696c656420746f207769746864726177204d617469630000000000000000600082015250565b6000614d96601883613f7a565b9150614da182614d60565b602082019050919050565b60006020820190508181036000830152614dc581614d89565b9050919050565b7f4552433732313a206f776e657220717565727920666f72206e6f6e657869737460008201527f656e7420746f6b656e0000000000000000000000000000000000000000000000602082015250565b6000614e28602983613f7a565b9150614e3382614dcc565b604082019050919050565b60006020820190508181036000830152614e5781614e1b565b9050919050565b7f4552433732313a2062616c616e636520717565727920666f7220746865207a6560008201527f726f206164647265737300000000000000000000000000000000000000000000602082015250565b6000614eba602a83613f7a565b9150614ec582614e5e565b604082019050919050565b60006020820190508181036000830152614ee981614ead565b9050919050565b600081905092915050565b6000614f078385614ef0565b9350614f1483858461425e565b82840190509392505050565b6000614f2d828486614efb565b91508190509392505050565b7f4e487b7100000000000000000000000000000000000000000000000000000000600052603260045260246000fd5b7f4e487b7100000000000000000000000000000000000000000000000000000000600052602160045260246000fd5b7f5265636f7264206e6f7420666f756e6400000000000000000000000000000000600082015250565b6000614fcd601083613f7a565b9150614fd882614f97565b602082019050919050565b60006020820190508181036000830152614ffc81614fc0565b9050919050565b7f4164647265737320756e6b6e6f776e0000000000000000000000000000000000600082015250565b6000615039600f83613f7a565b915061504482615003565b602082019050919050565b600060208201905081810360008301526150688161502c565b9050919050565b60008190508160005260206000209050919050565b6000815461509181614aa0565b61509b8186614ef0565b945060018216600081146150b657600181146150c7576150fa565b60ff198316865281860193506150fa565b6150d08561506f565b60005b838110156150f2578154818901526001820191506020810190506150d3565b838801955050505b50505092915050565b7f2e00000000000000000000000000000000000000000000000000000000000000600082015250565b6000615139600183614ef0565b915061514482615103565b600182019050919050565b600061515b8285615084565b91506151668261512c565b91506151728284615084565b91508190509392505050565b600061518a8284615084565b915081905092915050565b60006151a082613f6f565b6151aa8185614ef0565b93506151ba818560208601613f8b565b80840191505092915050565b60006151d28286615084565b91506151de8285615195565b91506151ea8284615084565b9150819050949350505050565b7f646174613a696d6167652f7376672b786d6c3b6261736536342c000000000000600082015250565b600061522d601a83614ef0565b9150615238826151f7565b601a82019050919050565b600061524e82615220565b915061525a8284615195565b915081905092915050565b7f7b226e616d65223a202200000000000000000000000000000000000000000000600082015250565b600061529b600a83614ef0565b91506152a682615265565b600a82019050919050565b7f222c20226465736372697074696f6e223a20224120646f6d61696e206f6e207460008201527f686520484f444c206e616d652073657276696365222c2022696d616765223a2060208201527f2200000000000000000000000000000000000000000000000000000000000000604082015250565b6000615333604183614ef0565b915061533e826152b1565b604182019050919050565b7f222c226c656e677468223a220000000000000000000000000000000000000000600082015250565b600061537f600c83614ef0565b915061538a82615349565b600c82019050919050565b7f227d000000000000000000000000000000000000000000000000000000000000600082015250565b60006153cb600283614ef0565b91506153d682615395565b600282019050919050565b60006153ec8261528e565b91506153f88286615195565b915061540382615326565b915061540f8285615195565b915061541a82615372565b91506154268284615195565b9150615431826153be565b9150819050949350505050565b7f646174613a6170706c69636174696f6e2f6a736f6e3b6261736536342c000000600082015250565b6000615474601d83614ef0565b915061547f8261543e565b601d82019050919050565b600061549582615467565b91506154a18284615195565b915081905092915050565b60006154b88385613f7a565b93506154c583858461425e565b6154ce83613fbe565b840190509392505050565b600060208201905081810360008301526154f48184866154ac565b90509392505050565b60008151905061550c81614034565b92915050565b60006020828403121561552857615527613eaa565b5b6000615536848285016154fd565b91505092915050565b7f4e6f7420656e6f756768204d6174696320706169640000000000000000000000600082015250565b6000615575601583613f7a565b91506155808261553f565b602082019050919050565b600060208201905081810360008301526155a481615568565b9050919050565b7f4e487b7100000000000000000000000000000000000000000000000000000000600052601160045260246000fd5b60006155e58261402a565b91506155f08361402a565b925082821015615603576156026155ab565b5b828203905092915050565b60006156198261402a565b91507fffffffffffffffffffffffffffffffffffffffffffffffffffffffffffffffff82141561564c5761564b6155ab565b5b600182019050919050565b600060408201905081810360008301526156718185613fcf565b905081810360208301526156858184613fcf565b90509392505050565b7f4552433732313a206f70657261746f7220717565727920666f72206e6f6e657860008201527f697374656e7420746f6b656e0000000000000000000000000000000000000000602082015250565b60006156ea602c83613f7a565b91506156f58261568e565b604082019050919050565b60006020820190508181036000830152615719816156dd565b9050919050565b7f4552433732313a207472616e736665722066726f6d20696e636f72726563742060008201527f6f776e6572000000000000000000000000000000000000000000000000000000602082015250565b600061577c602583613f7a565b915061578782615720565b604082019050919050565b600060208201905081810360008301526157ab8161576f565b9050919050565b7f4552433732313a207472616e7366657220746f20746865207a65726f2061646460008201527f7265737300000000000000000000000000000000000000000000000000000000602082015250565b600061580e602483613f7a565b9150615819826157b2565b604082019050919050565b6000602082019050818103600083015261583d81615801565b9050919050565b600061584f8261402a565b915061585a8361402a565b9250827fffffffffffffffffffffffffffffffffffffffffffffffffffffffffffffffff0382111561588f5761588e6155ab565b5b828201905092915050565b7f4552433732313a20617070726f766520746f2063616c6c657200000000000000600082015250565b60006158d0601983613f7a565b91506158db8261589a565b602082019050919050565b600060208201905081810360008301526158ff816158c3565b9050919050565b7f4552433732313a207472616e7366657220746f206e6f6e20455243373231526560008201527f63656976657220696d706c656d656e7465720000000000000000000000000000602082015250565b6000615962603283613f7a565b915061596d82615906565b604082019050919050565b6000602082019050818103600083015261599181615955565b9050919050565b7f4e487b7100000000000000000000000000000000000000000000000000000000600052601260045260246000fd5b60006159d28261402a565b91506159dd8361402a565b9250826159ed576159ec615998565b5b828204905092915050565b6000615a038261402a565b9150615a0e8361402a565b925082615a1e57615a1d615998565b5b828206905092915050565b6000615a348261402a565b9150615a3f8361402a565b9250817fffffffffffffffffffffffffffffffffffffffffffffffffffffffffffffffff0483118215151615615a7857615a776155ab565b5b828202905092915050565b60006080820190508181036000830152615a9d8187613fcf565b90508181036020830152615ab18186613fcf565b90508181036040830152615ac58185613fcf565b9050615ad460608301846143c9565b95945050505050565b60006060820190508181036000830152615af78186613fcf565b9050615b0660208301856143c9565b8181036040830152615b188184613fcf565b9050949350505050565b600081519050919050565b600082825260208201905092915050565b6000615b4982615b22565b615b538185615b2d565b9350615b63818560208601613f8b565b615b6c81613fbe565b840191505092915050565b6000608082019050615b8c60008301876140bf565b615b9960208301866140bf565b615ba660408301856143c9565b8181036060830152615bb88184615b3e565b905095945050505050565b600081519050615bd281613ee0565b92915050565b600060208284031215615bee57615bed613eaa565b5b6000615bfc84828501615bc3565b91505092915050565b7f4552433732313a206d696e7420746f20746865207a65726f2061646472657373600082015250565b6000615c3b602083613f7a565b9150615c4682615c05565b602082019050919050565b60006020820190508181036000830152615c6a81615c2e565b9050919050565b7f4552433732313a20746f6b656e20616c7265616479206d696e74656400000000600082015250565b6000615ca7601c83613f7a565b9150615cb282615c71565b602082019050919050565b60006020820190508181036000830152615cd681615c9a565b905091905056fe5265676973746572696e672025732e2573206f6e2074686520636f6e7472616374207769746820746f6b656e49442025644142434445464748494a4b4c4d4e4f505152535455565758595a6162636465666768696a6b6c6d6e6f707172737475767778797a303132333435363738392b2fa2646970667358221220ace4e95363b27968023afeb37e56c4133b453b9f42f1d45834eb1882816aad1164736f6c634300080a00333c73766720786d6c6e733d22687474703a2f2f7777772e77332e6f72672f323030302f737667222077696474683d2232373022206865696768743d22323730222066696c6c3d226e6f6e65223e203c706174682066696c6c3d2275726c282342292220643d224d302030683237307632373048307a222f3e3c646566733e3c66696c7465722069643d22412220636f6c6f722d696e746572706f6c6174696f6e2d66696c746572733d2273524742222066696c746572556e6974733d227573657253706163654f6e55736522206865696768743d22323730222077696474683d22323730223e3c666544726f70536861646f772064783d2230222064793d22312220737464446576696174696f6e3d22322220666c6f6f642d6f7061636974793d222e323235222077696474683d223230302522206865696768743d2232303025222f3e3c2f66696c7465723e3c2f646566733e3c7061746820643d224d37322e3836332034322e393439632d2e3636382d2e3338372d312e3432362d2e35392d322e3139372d2e3539732d312e3532392e3230342d322e3139372e35396c2d31302e30383120362e3033322d362e383520332e3933342d31302e30383120362e303332632d2e3636382e3338372d312e3432362e35392d322e3139372e3539732d312e3532392d2e3230342d322e3139372d2e35396c2d382e3031332d342e37323161342e353220342e35322030203020312d312e3538392d312e363136632d2e3338342d2e3636352d2e3539342d312e3431382d2e3630382d322e313837762d392e3331632d2e3031332d2e3737352e3138352d312e3533382e3537322d322e32303861342e323520342e323520302030203120312e3632352d312e3539356c372e3838342d342e3539632e3636382d2e33383720312e3432362d2e353920322e3139372d2e353973312e3532392e32303420322e3139372e35396c372e38383420342e353961342e353220342e353220302030203120312e35383920312e363136632e3338342e3636352e35393420312e3431382e36303820322e31383776362e3033326c362e38352d342e303635762d362e303332632e3031332d2e3737352d2e3138352d312e3533382d2e3537322d322e32303861342e323520342e32352030203020302d312e3632352d312e3539354c34312e3435362032342e3539632d2e3636382d2e3338372d312e3432362d2e35392d322e3139372d2e3539732d312e3532392e3230342d322e3139372e35396c2d31342e38363420382e36353561342e323520342e32352030203020302d312e36323520312e353935632d2e3338372e36372d2e35383520312e3433342d2e35373220322e3230387631372e343431632d2e3031332e3737352e31383520312e3533382e35373220322e32303861342e323520342e323520302030203020312e36323520312e3539356c31342e38363420382e363535632e3636382e33383720312e3432362e353920322e3139372e353973312e3532392d2e32303420322e3139372d2e35396c31302e3038312d352e39303120362e38352d342e3036352031302e3038312d352e393031632e3636382d2e33383720312e3432362d2e353920322e3139372d2e353973312e3532392e32303420322e3139372e35396c372e38383420342e353961342e353220342e353220302030203120312e35383920312e363136632e3338342e3636352e35393420312e3431382e36303820322e31383776392e333131632e3031332e3737352d2e31383520312e3533382d2e35373220322e32303861342e323520342e32352030203020312d312e36323520312e3539356c2d372e38383420342e373231632d2e3636382e3338372d312e3432362e35392d322e3139372e3539732d312e3532392d2e3230342d322e3139372d2e35396c2d372e3838342d342e353961342e353220342e35322030203020312d312e3538392d312e363136632d2e3338352d2e3636352d2e3539342d312e3431382d2e3630382d322e313837762d362e3033326c2d362e383520342e30363576362e303332632d2e3031332e3737352e31383520312e3533382e35373220322e32303861342e323520342e323520302030203020312e36323520312e3539356c31342e38363420382e363535632e3636382e33383720312e3432362e353920322e3139372e353973312e3532392d2e32303420322e3139372d2e35396c31342e3836342d382e363535632e3635372d2e33393420312e3230342d2e393520312e3538392d312e363136732e3539342d312e3431382e3630392d322e3138375635352e353338632e3031332d2e3737352d2e3138352d312e3533382d2e3537322d322e32303861342e323520342e32352030203020302d312e3632352d312e3539356c2d31342e3939332d382e3738367a222066696c6c3d2223464646222f3e3c646566733e3c6c696e6561724772616469656e742069643d2242222078313d2230222079313d2230222078323d22323730222079323d2232373022206772616469656e74556e6974733d227573657253706163654f6e557365223e3c73746f702073746f702d636f6c6f723d2223623033336436222f3e3c73746f70206f66667365743d2231222073746f702d636f6c6f723d2223653039363164222073746f702d6f7061636974793d222e3939222f3e3c2f6c696e6561724772616469656e743e3c2f646566733e3c7465787420783d2233322e352220793d223233312220666f6e742d73697a653d223237222066696c6c3d2223666666222066696c7465723d2275726c282341292220666f6e742d66616d696c793d22506c7573204a616b617274612053616e732c44656a6156752053616e732c4e6f746f20436f6c6f7220456d6f6a692c4170706c6520436f6c6f7220456d6f6a692c73616e732d73657269662220666f6e742d7765696768743d22626f6c64223e",
  "linkReferences": {},
  "deployedLinkReferences": {}
}